{"abi":[{"inputs":[],"stateMutability":"nonpayable","type":"constructor","name":"constructor"},{"inputs":[{"internalType":"string","name":"","type":"string"}],"name":"candidates","outputs":[{"internalType":"string","name":"name","type":"string"},{"internalType":"uint256","name":"receivedVotes","type":"uint256"}],"stateMutability":"view","type":"function"},{"inputs":[],"name":"electionChief","outputs":[{"internalType":"address","name":"","type":"address"}],"stateMutability":"view","type":"function"},{"inputs":[],"name":"electionOpen","outputs":[{"internalType":"bool","name":"","type":"bool"}],"stateMutability":"view","type":"function"},{"inputs":[],"name":"finishElection","outputs":[],"stateMutability":"nonpayable","type":"function"},{"inputs":[{"internalType":"string","name":"stringOne","type":"string"},{"internalType":"string","name":"stringTwo","type":"string"}],"name":"isTheSameString","outputs":[{"internalType":"bool","name":"","type":"bool"}],"stateMutability":"pure","type":"function"},{"inputs":[{"internalType":"uint256","name":"","type":"uint256"}],"name":"listOfCandidates","outputs":[{"internalType":"string","name":"name","type":"string"},{"internalType":"uint256","name":"receivedVotes","type":"uint256"}],"stateMutability":"view","type":"function"},{"inputs":[{"internalType":"string","name":"voterName","type":"string"},{"internalType":"string","name":"voterSurname","type":"string"},{"internalType":"string","name":"voterPESEL","type":"string"}],"name":"verifyVoter","outputs":[{"internalType":"bool","name":"voterEligible","type":"bool"}],"stateMutability":"view","type":"function"},{"inputs":[{"internalType":"string","name":"voterName","type":"string"},{"internalType":"string","name":"voterSurname","type":"string"},{"internalType":"string","name":"voterPESEL","type":"string"},{"internalType":"string","name":"candidateName","type":"string"}],"name":"vote","outputs":[],"stateMutability":"nonpayable","type":"function"},{"inputs":[{"internalType":"string","name":"","type":"string"}],"name":"voters","outputs":[{"internalType":"string","name":"name","type":"string"},{"internalType":"string","name":"surname","type":"string"},{"internalType":"string","name":"PESEL","type":"string"},{"internalType":"int256","name":"age","type":"int256"},{"internalType":"bool","name":"allowedToVote","type":"bool"}],"stateMutability":"view","type":"function"}],"bytecode":"60806040523480156200001157600080fd5b506000805460ff60a01b1933166001600160a81b031990911617600160a01b1790556200003d6200004d565b6200004762000935565b62000e3e565b6040518060a00160405280604051806040016040528060038152602001622530b760e91b8152508152602001604051806040016040528060088152602001674b6f77616c736b6960c01b81525081526020016040518060400160405280600b81526020016a1818191919999c981a199960a91b815250815260200160168152602001600115158152506001604051620000f7906a1818191919999c981a199960a91b8152600b0190565b9081526040519081900360200190208151819062000116908262000c73565b50602082015160018201906200012d908262000c73565b506040820151600282019062000144908262000c73565b5060608281015160038301556080928301516004909201805492151560ff19909316929092179091556040805160e081018252600660a082019081526548616c696e6160d01b60c083015281528151808301835260058152644e6f77616b60d81b6020828101919091528083019190915282518084018452600b81526a1c98181919181b9a19999960a91b81830152828401529281019290925260019282018390525190919062000206906a1c98181919181b9a19999960a91b8152600b0190565b9081526040519081900360200190208151819062000225908262000c73565b50602082015160018201906200023c908262000c73565b506040820151600282019062000253908262000c73565b5060608281015160038301556080928301516004909201805460ff1916921515929092179091556040805160e081018252600660a08201908152654c756477696b60d01b60c0830152815281518083018352600b8082526a4d6f6e74676f6d6d65727960a81b60208381019190915280840192909252835180850185528181526a393330333130363534363560a81b92810183905283850152601d94830194909452600194820185905291519182529291019081526040519081900360200190208151819062000324908262000c73565b50602082015160018201906200033b908262000c73565b506040820151600282019062000352908262000c73565b506060820151816003015560808201518160040160006101000a81548160ff0219169083151502179055509050506040518060a00160405280604051806040016040528060098152602001684b617461727a796e6160b81b8152508152602001604051806040016040528060038152602001624d616b60e81b81525081526020016040518060400160405280600b81526020016a0706060666068706a6c6c760ab1b8152508152602001602a81526020016001151581525060016040516200042b906a0706060666068706a6c6c760ab1b8152600b0190565b908152604051908190036020019020815181906200044a908262000c73565b506020820151600182019062000461908262000c73565b506040820151600282019062000478908262000c73565b506060820151816003015560808201518160040160006101000a81548160ff0219169083151502179055509050506040518060a00160405280604051806040016040528060068152602001654a6f616e6e6160d01b8152508152602001604051806040016040528060048152602001630b4f2c6d60e31b81525081526020016040518060400160405280600b81526020016a1c98981c18189c9b1b1b1960a91b8152508152602001601f81526020016001151581525060016040516200054f906a1c98981c18189c9b1b1b1960a91b8152600b0190565b908152604051908190036020019020815181906200056e908262000c73565b506020820151600182019062000585908262000c73565b50604082015160028201906200059c908262000c73565b506060820151816003015560808201518160040160006101000a81548160ff0219169083151502179055509050506040518060a00160405280604051806040016040528060068152602001654d6f6e696b6160d01b815250815260200160405180604001604052806009815260200168477261626f77736b6160b81b81525081526020016040518060400160405280600b81526020016a303133303234313733343760a81b81525081526020016015815260200160011515815250600160405162000678906a303133303234313733343760a81b8152600b0190565b9081526040519081900360200190208151819062000697908262000c73565b5060208201516001820190620006ae908262000c73565b5060408201516002820190620006c5908262000c73565b506060820151816003015560808201518160040160006101000a81548160ff0219169083151502179055509050506040518060a00160405280604051806040016040528060078152602001662230b934bab9bd60c91b8152508152602001604051806040016040528060048152602001634475646160e01b81525081526020016040518060400160405280600b81526020016a303032323137323434353760a81b8152508152602001601681526020016001151581525060016040516200079d906a303032323137323434353760a81b8152600b0190565b90815260405190819003602001902081518190620007bc908262000c73565b5060208201516001820190620007d3908262000c73565b5060408201516002820190620007ea908262000c73565b506060820151816003015560808201518160040160006101000a81548160ff0219169083151502179055509050506040518060a001604052806040518060400160405280600581526020016412d85c9bdb60da1b8152508152602001604051806040016040528060058152602001644e6f77616b60d81b81525081526020016040518060400160405280600b81526020016a18989998189c991b1a199b60a91b8152508152602001600b8152602001600015158152506001604051620008c1906a18989998189c991b1a199b60a91b8152600b0190565b90815260405190819003602001902081518190620008e0908262000c73565b5060208201516001820190620008f7908262000c73565b50604082015160028201906200090e908262000c73565b50606082015160038201556080909101516004909101805460ff1916911515919091179055565b60408051608081018252600a918101918252694b616e6479646174203160b01b60608201529081526000602082018190526003805460018101825591528151600290910260008051602062001da58339815191520190819062000999908262000c73565b5060209182015160019182015560408051608081018252600a9181019182526925b0b7323cb230ba101960b11b606082015290815260009281018390526003805492830181559092528151600290910260008051602062001da58339815191520190819062000a09908262000c73565b5060209182015160019182015560408051608081018252600a918101918252694b616e6479646174203360b01b606082015290815260009281018390526003805492830181559092528151600290910260008051602062001da58339815191520190819062000a79908262000c73565b50602082015181600101555050600360008154811062000a9d5762000a9d62000d3f565b9060005260206000209060020201600260405162000acb90694b616e6479646174203160b01b8152600a0190565b9081526040519081900360200190208062000ae7838262000d55565b5060018201548160010155905050600360018154811062000b0c5762000b0c62000d3f565b9060005260206000209060020201600260405162000b3a906925b0b7323cb230ba101960b11b8152600a0190565b9081526040519081900360200190208062000b56838262000d55565b5060019182015491015560038054600290811062000b785762000b7862000d3f565b9060005260206000209060020201600260405162000ba690694b616e6479646174203360b01b8152600a0190565b9081526040519081900360200190208062000bc2838262000d55565b50600191820154910155565b634e487b7160e01b600052604160045260246000fd5b600181811c9082168062000bf957607f821691505b60208210810362000c1a57634e487b7160e01b600052602260045260246000fd5b50919050565b601f82111562000c6e57600081815260208120601f850160051c8101602086101562000c495750805b601f850160051c820191505b8181101562000c6a5782815560010162000c55565b5050505b505050565b81516001600160401b0381111562000c8f5762000c8f62000bce565b62000ca78162000ca0845462000be4565b8462000c20565b602080601f83116001811462000cdf576000841562000cc65750858301515b600019600386901b1c1916600185901b17855562000c6a565b600085815260208120601f198616915b8281101562000d105788860151825594840194600190910190840162000cef565b508582101562000d2f5787850151600019600388901b60f8161c191681555b5050505050600190811b01905550565b634e487b7160e01b600052603260045260246000fd5b81810362000d61575050565b62000d6d825462000be4565b6001600160401b0381111562000d875762000d8762000bce565b62000d988162000ca0845462000be4565b6000601f82116001811462000dcf576000831562000db65750848201545b600019600385901b1c1916600184901b17845562000e37565b600085815260209020601f19841690600086815260209020845b8381101562000e0b578286015482556001958601959091019060200162000de9565b508583101562000e2a5781850154600019600388901b60f8161c191681555b50505060018360011b0184555b5050505050565b610f578062000e4e6000396000f3fe608060405234801561001057600080fd5b50600436106100935760003560e01c80639017386411610066578063901738641461012357806392d7df4a1461012d5780639b3bc1561461014e578063b2fd536414610161578063c5539cc21461017457600080fd5b80634a39d442146100985780634f834f1c146100c157806353fa2e64146100d457806365e0647d146100f8575b600080fd5b6000546100ac90600160a01b900460ff1681565b60405190151581526020015b60405180910390f35b6100ac6100cf366004610be0565b610187565b6100e76100e2366004610c68565b61058a565b6040516100b8959493929190610cf5565b60005461010b906001600160a01b031681565b6040516001600160a01b0390911681526020016100b8565b61012b61075f565b005b61014061013b366004610d48565b6108d0565b6040516100b8929190610d61565b61012b61015c366004610d83565b61098c565b6100ac61016f366004610e30565b610ab0565b610140610182366004610c68565b610b17565b60008060018360405161019a9190610e94565b90815260200160405180910390206040518060a00160405290816000820180546101c390610eb0565b80601f01602080910402602001604051908101604052809291908181526020018280546101ef90610eb0565b801561023c5780601f106102115761010080835404028352916020019161023c565b820191906000526020600020905b81548152906001019060200180831161021f57829003601f168201915b5050505050815260200160018201805461025590610eb0565b80601f016020809104026020016040519081016040528092919081815260200182805461028190610eb0565b80156102ce5780601f106102a3576101008083540402835291602001916102ce565b820191906000526020600020905b8154815290600101906020018083116102b157829003601f168201915b505050505081526020016002820180546102e790610eb0565b80601f016020809104026020016040519081016040528092919081815260200182805461031390610eb0565b80156103605780601f1061033557610100808354040283529160200191610360565b820191906000526020600020905b81548152906001019060200180831161034357829003601f168201915b50505091835250506003820154602082015260049091015460ff1615156040918201528101519091506103939084610ab0565b6103fb5760405162461bcd60e51b815260206004820152602e60248201527f5468697320706572736f6e20646f65736e27742065786973747320696e20766f60448201526d746572732064617461626173652160901b60648201526084015b60405180910390fd5b80516104079086610ab0565b6104625760405162461bcd60e51b815260206004820152602660248201527f546865206e616d65206f662074686520706572736f6e206973206e6f7420636f60448201526572726563742160d01b60648201526084016103f2565b610470816020015185610ab0565b6104ce5760405162461bcd60e51b815260206004820152602960248201527f546865207375726e616d65206f662074686520706572736f6e206973206e6f7460448201526820636f72726563742160b81b60648201526084016103f2565b6012816060015112156105235760405162461bcd60e51b815260206004820152601b60248201527f54686520706572736f6e206973206e6f7420616e206164756c7421000000000060448201526064016103f2565b806080015161057f5760405162461bcd60e51b815260206004820152602260248201527f54686520706572736f6e206973206e6f7420616c6c6f77656420746f20766f74604482015261652160f01b60648201526084016103f2565b506001949350505050565b80516020818301810180516001825292820191909301209152805481906105b090610eb0565b80601f01602080910402602001604051908101604052809291908181526020018280546105dc90610eb0565b80156106295780601f106105fe57610100808354040283529160200191610629565b820191906000526020600020905b81548152906001019060200180831161060c57829003601f168201915b50505050509080600101805461063e90610eb0565b80601f016020809104026020016040519081016040528092919081815260200182805461066a90610eb0565b80156106b75780601f1061068c576101008083540402835291602001916106b7565b820191906000526020600020905b81548152906001019060200180831161069a57829003601f168201915b5050505050908060020180546106cc90610eb0565b80601f01602080910402602001604051908101604052809291908181526020018280546106f890610eb0565b80156107455780601f1061071a57610100808354040283529160200191610745565b820191906000526020600020905b81548152906001019060200180831161072857829003601f168201915b50505050600383015460049093015491929160ff16905085565b6000546001600160a01b031633146107b95760405162461bcd60e51b815260206004820152601760248201527f4e6f742074686520636f6e7472616374206f776e65722100000000000000000060448201526064016103f2565b6000805460ff60a01b19169055604051694b616e6479646174203160b01b8152600290600a01908152602001604051809103902060010154600360008154811061080557610805610eea565b9060005260206000209060020201600101819055506002604051610839906925b0b7323cb230ba101960b11b8152600a0190565b908152602001604051809103902060010154600360018154811061085f5761085f610eea565b906000526020600020906002020160010181905550600260405161089390694b616e6479646174203360b01b8152600a0190565b90815260200160405180910390206001015460036002815481106108b9576108b9610eea565b906000526020600020906002020160010181905550565b600381815481106108e057600080fd5b906000526020600020906002020160009150905080600001805461090390610eb0565b80601f016020809104026020016040519081016040528092919081815260200182805461092f90610eb0565b801561097c5780601f106109515761010080835404028352916020019161097c565b820191906000526020600020905b81548152906001019060200180831161095f57829003601f168201915b5050505050908060010154905082565b600054600160a01b900460ff166109db5760405162461bcd60e51b8152602060048201526013602482015272456c656374696f6e20697320636c6f7365642160681b60448201526064016103f2565b6109e6848484610187565b610a3e5760405162461bcd60e51b815260206004820152602360248201527f566f746572206469646e27742066756c66696c6c7320726571756972656d656e60448201526274732160e81b60648201526084016103f2565b6000600183604051610a509190610e94565b908152604051908190036020018120600401805492151560ff1990931692909217909155600190600290610a85908490610e94565b90815260200160405180910390206001016000828254610aa59190610f00565b909155505050505050565b600081604051602001610ac39190610e94565b6040516020818303038152906040528051906020012083604051602001610aea9190610e94565b6040516020818303038152906040528051906020012003610b0d57506001610b11565b5060005b92915050565b805160208183018101805160028252928201919093012091528054819061090390610eb0565b634e487b7160e01b600052604160045260246000fd5b600082601f830112610b6457600080fd5b813567ffffffffffffffff80821115610b7f57610b7f610b3d565b604051601f8301601f19908116603f01168101908282118183101715610ba757610ba7610b3d565b81604052838152866020858801011115610bc057600080fd5b836020870160208301376000602085830101528094505050505092915050565b600080600060608486031215610bf557600080fd5b833567ffffffffffffffff80821115610c0d57600080fd5b610c1987838801610b53565b94506020860135915080821115610c2f57600080fd5b610c3b87838801610b53565b93506040860135915080821115610c5157600080fd5b50610c5e86828701610b53565b9150509250925092565b600060208284031215610c7a57600080fd5b813567ffffffffffffffff811115610c9157600080fd5b610c9d84828501610b53565b949350505050565b60005b83811015610cc0578181015183820152602001610ca8565b50506000910152565b60008151808452610ce1816020860160208601610ca5565b601f01601f19169290920160200192915050565b60a081526000610d0860a0830188610cc9565b8281036020840152610d1a8188610cc9565b90508281036040840152610d2e8187610cc9565b606084019590955250509015156080909101529392505050565b600060208284031215610d5a57600080fd5b5035919050565b604081526000610d746040830185610cc9565b90508260208301529392505050565b60008060008060808587031215610d9957600080fd5b843567ffffffffffffffff80821115610db157600080fd5b610dbd88838901610b53565b95506020870135915080821115610dd357600080fd5b610ddf88838901610b53565b94506040870135915080821115610df557600080fd5b610e0188838901610b53565b93506060870135915080821115610e1757600080fd5b50610e2487828801610b53565b91505092959194509250565b60008060408385031215610e4357600080fd5b823567ffffffffffffffff80821115610e5b57600080fd5b610e6786838701610b53565b93506020850135915080821115610e7d57600080fd5b50610e8a85828601610b53565b9150509250929050565b60008251610ea6818460208701610ca5565b9190910192915050565b600181811c90821680610ec457607f821691505b602082108103610ee457634e487b7160e01b600052602260045260246000fd5b50919050565b634e487b7160e01b600052603260045260246000fd5b80820180821115610b1157634e487b7160e01b600052601160045260246000fdfea264697066735822122057fc69dc78f940411b023176eb8b4e88a63df338544ea3ca1336694241b6942864736f6c63430008110033c2575a0e9e593c00f959f8c92f12db2869c3395a3b0502d05e2516446f71f85b","bytecodeSha1":"da39a3ee5e6b4b0d3255bfef95601890afd80709","compiler":{"evm_version":"istanbul","optimizer":{"enabled":true,"runs":200},"version":"0.8.17+commit.8df45f5f"},"contractName":"VotingSystem","language":"Solidity","natspec":{"kind":"dev","methods":{},"version":1},"opcodes":"PUSH1 0x80 PUSH1 0x40 MSTORE CALLVALUE DUP1 ISZERO PUSH2 0x10 JUMPI PUSH1 0x0 DUP1 REVERT JUMPDEST POP PUSH1 0x4 CALLDATASIZE LT PUSH2 0x93 JUMPI PUSH1 0x0 CALLDATALOAD PUSH1 0xE0 SHR DUP1 PUSH4 0x90173864 GT PUSH2 0x66 JUMPI DUP1 PUSH4 0x90173864 EQ PUSH2 0x123 JUMPI DUP1 PUSH4 0x92D7DF4A EQ PUSH2 0x12D JUMPI DUP1 PUSH4 0x9B3BC156 EQ PUSH2 0x14E JUMPI DUP1 PUSH4 0xB2FD5364 EQ PUSH2 0x161 JUMPI DUP1 PUSH4 0xC5539CC2 EQ PUSH2 0x174 JUMPI PUSH1 0x0 DUP1 REVERT JUMPDEST DUP1 PUSH4 0x4A39D442 EQ PUSH2 0x98 JUMPI DUP1 PUSH4 0x4F834F1C EQ PUSH2 0xC1 JUMPI DUP1 PUSH4 0x53FA2E64 EQ PUSH2 0xD4 JUMPI DUP1 PUSH4 0x65E0647D EQ PUSH2 0xF8 JUMPI JUMPDEST PUSH1 0x0 DUP1 REVERT JUMPDEST PUSH1 0x0 SLOAD PUSH2 0xAC SWAP1 PUSH1 0x1 PUSH1 0xA0 SHL SWAP1 DIV PUSH1 0xFF AND DUP2 JUMP JUMPDEST PUSH1 0x40 MLOAD SWAP1 ISZERO ISZERO DUP2 MSTORE PUSH1 0x20 ADD JUMPDEST PUSH1 0x40 MLOAD DUP1 SWAP2 SUB SWAP1 RETURN JUMPDEST PUSH2 0xAC PUSH2 0xCF CALLDATASIZE PUSH1 0x4 PUSH2 0xBE0 JUMP JUMPDEST PUSH2 0x187 JUMP JUMPDEST PUSH2 0xE7 PUSH2 0xE2 CALLDATASIZE PUSH1 0x4 PUSH2 0xC68 JUMP JUMPDEST PUSH2 0x58A JUMP JUMPDEST PUSH1 0x40 MLOAD PUSH2 0xB8 SWAP6 SWAP5 SWAP4 SWAP3 SWAP2 SWAP1 PUSH2 0xCF5 JUMP JUMPDEST PUSH1 0x0 SLOAD PUSH2 0x10B SWAP1 PUSH1 0x1 PUSH1 0x1 PUSH1 0xA0 SHL SUB AND DUP2 JUMP JUMPDEST PUSH1 0x40 MLOAD PUSH1 0x1 PUSH1 0x1 PUSH1 0xA0 SHL SUB SWAP1 SWAP2 AND DUP2 MSTORE PUSH1 0x20 ADD PUSH2 0xB8 JUMP JUMPDEST PUSH2 0x12B PUSH2 0x75F JUMP JUMPDEST STOP JUMPDEST PUSH2 0x140 PUSH2 0x13B CALLDATASIZE PUSH1 0x4 PUSH2 0xD48 JUMP JUMPDEST PUSH2 0x8D0 JUMP JUMPDEST PUSH1 0x40 MLOAD PUSH2 0xB8 SWAP3 SWAP2 SWAP1 PUSH2 0xD61 JUMP JUMPDEST PUSH2 0x12B PUSH2 0x15C CALLDATASIZE PUSH1 0x4 PUSH2 0xD83 JUMP JUMPDEST PUSH2 0x98C JUMP JUMPDEST PUSH2 0xAC PUSH2 0x16F CALLDATASIZE PUSH1 0x4 PUSH2 0xE30 JUMP JUMPDEST PUSH2 0xAB0 JUMP JUMPDEST PUSH2 0x140 PUSH2 0x182 CALLDATASIZE PUSH1 0x4 PUSH2 0xC68 JUMP JUMPDEST PUSH2 0xB17 JUMP JUMPDEST PUSH1 0x0 DUP1 PUSH1 0x1 DUP4 PUSH1 0x40 MLOAD PUSH2 0x19A SWAP2 SWAP1 PUSH2 0xE94 JUMP JUMPDEST SWAP1 DUP2 MSTORE PUSH1 0x20 ADD PUSH1 0x40 MLOAD DUP1 SWAP2 SUB SWAP1 KECCAK256 PUSH1 0x40 MLOAD DUP1 PUSH1 0xA0 ADD PUSH1 0x40 MSTORE SWAP1 DUP2 PUSH1 0x0 DUP3 ADD DUP1 SLOAD PUSH2 0x1C3 SWAP1 PUSH2 0xEB0 JUMP JUMPDEST DUP1 PUSH1 0x1F ADD PUSH1 0x20 DUP1 SWAP2 DIV MUL PUSH1 0x20 ADD PUSH1 0x40 MLOAD SWAP1 DUP2 ADD PUSH1 0x40 MSTORE DUP1 SWAP3 SWAP2 SWAP1 DUP2 DUP2 MSTORE PUSH1 0x20 ADD DUP3 DUP1 SLOAD PUSH2 0x1EF SWAP1 PUSH2 0xEB0 JUMP JUMPDEST DUP1 ISZERO PUSH2 0x23C JUMPI DUP1 PUSH1 0x1F LT PUSH2 0x211 JUMPI PUSH2 0x100 DUP1 DUP4 SLOAD DIV MUL DUP4 MSTORE SWAP2 PUSH1 0x20 ADD SWAP2 PUSH2 0x23C JUMP JUMPDEST DUP3 ADD SWAP2 SWAP1 PUSH1 0x0 MSTORE PUSH1 0x20 PUSH1 0x0 KECCAK256 SWAP1 JUMPDEST DUP2 SLOAD DUP2 MSTORE SWAP1 PUSH1 0x1 ADD SWAP1 PUSH1 0x20 ADD DUP1 DUP4 GT PUSH2 0x21F JUMPI DUP3 SWAP1 SUB PUSH1 0x1F AND DUP3 ADD SWAP2 JUMPDEST POP POP POP POP POP DUP2 MSTORE PUSH1 0x20 ADD PUSH1 0x1 DUP3 ADD DUP1 SLOAD PUSH2 0x255 SWAP1 PUSH2 0xEB0 JUMP JUMPDEST DUP1 PUSH1 0x1F ADD PUSH1 0x20 DUP1 SWAP2 DIV MUL PUSH1 0x20 ADD PUSH1 0x40 MLOAD SWAP1 DUP2 ADD PUSH1 0x40 MSTORE DUP1 SWAP3 SWAP2 SWAP1 DUP2 DUP2 MSTORE PUSH1 0x20 ADD DUP3 DUP1 SLOAD PUSH2 0x281 SWAP1 PUSH2 0xEB0 JUMP JUMPDEST DUP1 ISZERO PUSH2 0x2CE JUMPI DUP1 PUSH1 0x1F LT PUSH2 0x2A3 JUMPI PUSH2 0x100 DUP1 DUP4 SLOAD DIV MUL DUP4 MSTORE SWAP2 PUSH1 0x20 ADD SWAP2 PUSH2 0x2CE JUMP JUMPDEST DUP3 ADD SWAP2 SWAP1 PUSH1 0x0 MSTORE PUSH1 0x20 PUSH1 0x0 KECCAK256 SWAP1 JUMPDEST DUP2 SLOAD DUP2 MSTORE SWAP1 PUSH1 0x1 ADD SWAP1 PUSH1 0x20 ADD DUP1 DUP4 GT PUSH2 0x2B1 JUMPI DUP3 SWAP1 SUB PUSH1 0x1F AND DUP3 ADD SWAP2 JUMPDEST POP POP POP POP POP DUP2 MSTORE PUSH1 0x20 ADD PUSH1 0x2 DUP3 ADD DUP1 SLOAD PUSH2 0x2E7 SWAP1 PUSH2 0xEB0 JUMP JUMPDEST DUP1 PUSH1 0x1F ADD PUSH1 0x20 DUP1 SWAP2 DIV MUL PUSH1 0x20 ADD PUSH1 0x40 MLOAD SWAP1 DUP2 ADD PUSH1 0x40 MSTORE DUP1 SWAP3 SWAP2 SWAP1 DUP2 DUP2 MSTORE PUSH1 0x20 ADD DUP3 DUP1 SLOAD PUSH2 0x313 SWAP1 PUSH2 0xEB0 JUMP JUMPDEST DUP1 ISZERO PUSH2 0x360 JUMPI DUP1 PUSH1 0x1F LT PUSH2 0x335 JUMPI PUSH2 0x100 DUP1 DUP4 SLOAD DIV MUL DUP4 MSTORE SWAP2 PUSH1 0x20 ADD SWAP2 PUSH2 0x360 JUMP JUMPDEST DUP3 ADD SWAP2 SWAP1 PUSH1 0x0 MSTORE PUSH1 0x20 PUSH1 0x0 KECCAK256 SWAP1 JUMPDEST DUP2 SLOAD DUP2 MSTORE SWAP1 PUSH1 0x1 ADD SWAP1 PUSH1 0x20 ADD DUP1 DUP4 GT PUSH2 0x343 JUMPI DUP3 SWAP1 SUB PUSH1 0x1F AND DUP3 ADD SWAP2 JUMPDEST POP POP POP SWAP2 DUP4 MSTORE POP POP PUSH1 0x3 DUP3 ADD SLOAD PUSH1 0x20 DUP3 ADD MSTORE PUSH1 0x4 SWAP1 SWAP2 ADD SLOAD PUSH1 0xFF AND ISZERO ISZERO PUSH1 0x40 SWAP2 DUP3 ADD MSTORE DUP2 ADD MLOAD SWAP1 SWAP2 POP PUSH2 0x393 SWAP1 DUP5 PUSH2 0xAB0 JUMP JUMPDEST PUSH2 0x3FB JUMPI PUSH1 0x40 MLOAD PUSH3 0x461BCD PUSH1 0xE5 SHL DUP2 MSTORE PUSH1 0x20 PUSH1 0x4 DUP3 ADD MSTORE PUSH1 0x2E PUSH1 0x24 DUP3 ADD MSTORE PUSH32 0x5468697320706572736F6E20646F65736E27742065786973747320696E20766F PUSH1 0x44 DUP3 ADD MSTORE PUSH14 0x7465727320646174616261736521 PUSH1 0x90 SHL PUSH1 0x64 DUP3 ADD MSTORE PUSH1 0x84 ADD JUMPDEST PUSH1 0x40 MLOAD DUP1 SWAP2 SUB SWAP1 REVERT JUMPDEST DUP1 MLOAD PUSH2 0x407 SWAP1 DUP7 PUSH2 0xAB0 JUMP JUMPDEST PUSH2 0x462 JUMPI PUSH1 0x40 MLOAD PUSH3 0x461BCD PUSH1 0xE5 SHL DUP2 MSTORE PUSH1 0x20 PUSH1 0x4 DUP3 ADD MSTORE PUSH1 0x26 PUSH1 0x24 DUP3 ADD MSTORE PUSH32 0x546865206E616D65206F662074686520706572736F6E206973206E6F7420636F PUSH1 0x44 DUP3 ADD MSTORE PUSH6 0x727265637421 PUSH1 0xD0 SHL PUSH1 0x64 DUP3 ADD MSTORE PUSH1 0x84 ADD PUSH2 0x3F2 JUMP JUMPDEST PUSH2 0x470 DUP2 PUSH1 0x20 ADD MLOAD DUP6 PUSH2 0xAB0 JUMP JUMPDEST PUSH2 0x4CE JUMPI PUSH1 0x40 MLOAD PUSH3 0x461BCD PUSH1 0xE5 SHL DUP2 MSTORE PUSH1 0x20 PUSH1 0x4 DUP3 ADD MSTORE PUSH1 0x29 PUSH1 0x24 DUP3 ADD MSTORE PUSH32 0x546865207375726E616D65206F662074686520706572736F6E206973206E6F74 PUSH1 0x44 DUP3 ADD MSTORE PUSH9 0x20636F727265637421 PUSH1 0xB8 SHL PUSH1 0x64 DUP3 ADD MSTORE PUSH1 0x84 ADD PUSH2 0x3F2 JUMP JUMPDEST PUSH1 0x12 DUP2 PUSH1 0x60 ADD MLOAD SLT ISZERO PUSH2 0x523 JUMPI PUSH1 0x40 MLOAD PUSH3 0x461BCD PUSH1 0xE5 SHL DUP2 MSTORE PUSH1 0x20 PUSH1 0x4 DUP3 ADD MSTORE PUSH1 0x1B PUSH1 0x24 DUP3 ADD MSTORE PUSH32 0x54686520706572736F6E206973206E6F7420616E206164756C74210000000000 PUSH1 0x44 DUP3 ADD MSTORE PUSH1 0x64 ADD PUSH2 0x3F2 JUMP JUMPDEST DUP1 PUSH1 0x80 ADD MLOAD PUSH2 0x57F JUMPI PUSH1 0x40 MLOAD PUSH3 0x461BCD PUSH1 0xE5 SHL DUP2 MSTORE PUSH1 0x20 PUSH1 0x4 DUP3 ADD MSTORE PUSH1 0x22 PUSH1 0x24 DUP3 ADD MSTORE PUSH32 0x54686520706572736F6E206973206E6F7420616C6C6F77656420746F20766F74 PUSH1 0x44 DUP3 ADD MSTORE PUSH2 0x6521 PUSH1 0xF0 SHL PUSH1 0x64 DUP3 ADD MSTORE PUSH1 0x84 ADD PUSH2 0x3F2 JUMP JUMPDEST POP PUSH1 0x1 SWAP5 SWAP4 POP POP POP POP JUMP JUMPDEST DUP1 MLOAD PUSH1 0x20 DUP2 DUP4 ADD DUP2 ADD DUP1 MLOAD PUSH1 0x1 DUP3 MSTORE SWAP3 DUP3 ADD SWAP2 SWAP1 SWAP4 ADD KECCAK256 SWAP2 MSTORE DUP1 SLOAD DUP2 SWAP1 PUSH2 0x5B0 SWAP1 PUSH2 0xEB0 JUMP JUMPDEST DUP1 PUSH1 0x1F ADD PUSH1 0x20 DUP1 SWAP2 DIV MUL PUSH1 0x20 ADD PUSH1 0x40 MLOAD SWAP1 DUP2 ADD PUSH1 0x40 MSTORE DUP1 SWAP3 SWAP2 SWAP1 DUP2 DUP2 MSTORE PUSH1 0x20 ADD DUP3 DUP1 SLOAD PUSH2 0x5DC SWAP1 PUSH2 0xEB0 JUMP JUMPDEST DUP1 ISZERO PUSH2 0x629 JUMPI DUP1 PUSH1 0x1F LT PUSH2 0x5FE JUMPI PUSH2 0x100 DUP1 DUP4 SLOAD DIV MUL DUP4 MSTORE SWAP2 PUSH1 0x20 ADD SWAP2 PUSH2 0x629 JUMP JUMPDEST DUP3 ADD SWAP2 SWAP1 PUSH1 0x0 MSTORE PUSH1 0x20 PUSH1 0x0 KECCAK256 SWAP1 JUMPDEST DUP2 SLOAD DUP2 MSTORE SWAP1 PUSH1 0x1 ADD SWAP1 PUSH1 0x20 ADD DUP1 DUP4 GT PUSH2 0x60C JUMPI DUP3 SWAP1 SUB PUSH1 0x1F AND DUP3 ADD SWAP2 JUMPDEST POP POP POP POP POP SWAP1 DUP1 PUSH1 0x1 ADD DUP1 SLOAD PUSH2 0x63E SWAP1 PUSH2 0xEB0 JUMP JUMPDEST DUP1 PUSH1 0x1F ADD PUSH1 0x20 DUP1 SWAP2 DIV MUL PUSH1 0x20 ADD PUSH1 0x40 MLOAD SWAP1 DUP2 ADD PUSH1 0x40 MSTORE DUP1 SWAP3 SWAP2 SWAP1 DUP2 DUP2 MSTORE PUSH1 0x20 ADD DUP3 DUP1 SLOAD PUSH2 0x66A SWAP1 PUSH2 0xEB0 JUMP JUMPDEST DUP1 ISZERO PUSH2 0x6B7 JUMPI DUP1 PUSH1 0x1F LT PUSH2 0x68C JUMPI PUSH2 0x100 DUP1 DUP4 SLOAD DIV MUL DUP4 MSTORE SWAP2 PUSH1 0x20 ADD SWAP2 PUSH2 0x6B7 JUMP JUMPDEST DUP3 ADD SWAP2 SWAP1 PUSH1 0x0 MSTORE PUSH1 0x20 PUSH1 0x0 KECCAK256 SWAP1 JUMPDEST DUP2 SLOAD DUP2 MSTORE SWAP1 PUSH1 0x1 ADD SWAP1 PUSH1 0x20 ADD DUP1 DUP4 GT PUSH2 0x69A JUMPI DUP3 SWAP1 SUB PUSH1 0x1F AND DUP3 ADD SWAP2 JUMPDEST POP POP POP POP POP SWAP1 DUP1 PUSH1 0x2 ADD DUP1 SLOAD PUSH2 0x6CC SWAP1 PUSH2 0xEB0 JUMP JUMPDEST DUP1 PUSH1 0x1F ADD PUSH1 0x20 DUP1 SWAP2 DIV MUL PUSH1 0x20 ADD PUSH1 0x40 MLOAD SWAP1 DUP2 ADD PUSH1 0x40 MSTORE DUP1 SWAP3 SWAP2 SWAP1 DUP2 DUP2 MSTORE PUSH1 0x20 ADD DUP3 DUP1 SLOAD PUSH2 0x6F8 SWAP1 PUSH2 0xEB0 JUMP JUMPDEST DUP1 ISZERO PUSH2 0x745 JUMPI DUP1 PUSH1 0x1F LT PUSH2 0x71A JUMPI PUSH2 0x100 DUP1 DUP4 SLOAD DIV MUL DUP4 MSTORE SWAP2 PUSH1 0x20 ADD SWAP2 PUSH2 0x745 JUMP JUMPDEST DUP3 ADD SWAP2 SWAP1 PUSH1 0x0 MSTORE PUSH1 0x20 PUSH1 0x0 KECCAK256 SWAP1 JUMPDEST DUP2 SLOAD DUP2 MSTORE SWAP1 PUSH1 0x1 ADD SWAP1 PUSH1 0x20 ADD DUP1 DUP4 GT PUSH2 0x728 JUMPI DUP3 SWAP1 SUB PUSH1 0x1F AND DUP3 ADD SWAP2 JUMPDEST POP POP POP POP PUSH1 0x3 DUP4 ADD SLOAD PUSH1 0x4 SWAP1 SWAP4 ADD SLOAD SWAP2 SWAP3 SWAP2 PUSH1 0xFF AND SWAP1 POP DUP6 JUMP JUMPDEST PUSH1 0x0 SLOAD PUSH1 0x1 PUSH1 0x1 PUSH1 0xA0 SHL SUB AND CALLER EQ PUSH2 0x7B9 JUMPI PUSH1 0x40 MLOAD PUSH3 0x461BCD PUSH1 0xE5 SHL DUP2 MSTORE PUSH1 0x20 PUSH1 0x4 DUP3 ADD MSTORE PUSH1 0x17 PUSH1 0x24 DUP3 ADD MSTORE PUSH32 0x4E6F742074686520636F6E7472616374206F776E657221000000000000000000 PUSH1 0x44 DUP3 ADD MSTORE PUSH1 0x64 ADD PUSH2 0x3F2 JUMP JUMPDEST PUSH1 0x0 DUP1 SLOAD PUSH1 0xFF PUSH1 0xA0 SHL NOT AND SWAP1 SSTORE PUSH1 0x40 MLOAD PUSH10 0x4B616E64796461742031 PUSH1 0xB0 SHL DUP2 MSTORE PUSH1 0x2 SWAP1 PUSH1 0xA ADD SWAP1 DUP2 MSTORE PUSH1 0x20 ADD PUSH1 0x40 MLOAD DUP1 SWAP2 SUB SWAP1 KECCAK256 PUSH1 0x1 ADD SLOAD PUSH1 0x3 PUSH1 0x0 DUP2 SLOAD DUP2 LT PUSH2 0x805 JUMPI PUSH2 0x805 PUSH2 0xEEA JUMP JUMPDEST SWAP1 PUSH1 0x0 MSTORE PUSH1 0x20 PUSH1 0x0 KECCAK256 SWAP1 PUSH1 0x2 MUL ADD PUSH1 0x1 ADD DUP2 SWAP1 SSTORE POP PUSH1 0x2 PUSH1 0x40 MLOAD PUSH2 0x839 SWAP1 PUSH10 0x25B0B7323CB230BA1019 PUSH1 0xB1 SHL DUP2 MSTORE PUSH1 0xA ADD SWAP1 JUMP JUMPDEST SWAP1 DUP2 MSTORE PUSH1 0x20 ADD PUSH1 0x40 MLOAD DUP1 SWAP2 SUB SWAP1 KECCAK256 PUSH1 0x1 ADD SLOAD PUSH1 0x3 PUSH1 0x1 DUP2 SLOAD DUP2 LT PUSH2 0x85F JUMPI PUSH2 0x85F PUSH2 0xEEA JUMP JUMPDEST SWAP1 PUSH1 0x0 MSTORE PUSH1 0x20 PUSH1 0x0 KECCAK256 SWAP1 PUSH1 0x2 MUL ADD PUSH1 0x1 ADD DUP2 SWAP1 SSTORE POP PUSH1 0x2 PUSH1 0x40 MLOAD PUSH2 0x893 SWAP1 PUSH10 0x4B616E64796461742033 PUSH1 0xB0 SHL DUP2 MSTORE PUSH1 0xA ADD SWAP1 JUMP JUMPDEST SWAP1 DUP2 MSTORE PUSH1 0x20 ADD PUSH1 0x40 MLOAD DUP1 SWAP2 SUB SWAP1 KECCAK256 PUSH1 0x1 ADD SLOAD PUSH1 0x3 PUSH1 0x2 DUP2 SLOAD DUP2 LT PUSH2 0x8B9 JUMPI PUSH2 0x8B9 PUSH2 0xEEA JUMP JUMPDEST SWAP1 PUSH1 0x0 MSTORE PUSH1 0x20 PUSH1 0x0 KECCAK256 SWAP1 PUSH1 0x2 MUL ADD PUSH1 0x1 ADD DUP2 SWAP1 SSTORE POP JUMP JUMPDEST PUSH1 0x3 DUP2 DUP2 SLOAD DUP2 LT PUSH2 0x8E0 JUMPI PUSH1 0x0 DUP1 REVERT JUMPDEST SWAP1 PUSH1 0x0 MSTORE PUSH1 0x20 PUSH1 0x0 KECCAK256 SWAP1 PUSH1 0x2 MUL ADD PUSH1 0x0 SWAP2 POP SWAP1 POP DUP1 PUSH1 0x0 ADD DUP1 SLOAD PUSH2 0x903 SWAP1 PUSH2 0xEB0 JUMP JUMPDEST DUP1 PUSH1 0x1F ADD PUSH1 0x20 DUP1 SWAP2 DIV MUL PUSH1 0x20 ADD PUSH1 0x40 MLOAD SWAP1 DUP2 ADD PUSH1 0x40 MSTORE DUP1 SWAP3 SWAP2 SWAP1 DUP2 DUP2 MSTORE PUSH1 0x20 ADD DUP3 DUP1 SLOAD PUSH2 0x92F SWAP1 PUSH2 0xEB0 JUMP JUMPDEST DUP1 ISZERO PUSH2 0x97C JUMPI DUP1 PUSH1 0x1F LT PUSH2 0x951 JUMPI PUSH2 0x100 DUP1 DUP4 SLOAD DIV MUL DUP4 MSTORE SWAP2 PUSH1 0x20 ADD SWAP2 PUSH2 0x97C JUMP JUMPDEST DUP3 ADD SWAP2 SWAP1 PUSH1 0x0 MSTORE PUSH1 0x20 PUSH1 0x0 KECCAK256 SWAP1 JUMPDEST DUP2 SLOAD DUP2 MSTORE SWAP1 PUSH1 0x1 ADD SWAP1 PUSH1 0x20 ADD DUP1 DUP4 GT PUSH2 0x95F JUMPI DUP3 SWAP1 SUB PUSH1 0x1F AND DUP3 ADD SWAP2 JUMPDEST POP POP POP POP POP SWAP1 DUP1 PUSH1 0x1 ADD SLOAD SWAP1 POP DUP3 JUMP JUMPDEST PUSH1 0x0 SLOAD PUSH1 0x1 PUSH1 0xA0 SHL SWAP1 DIV PUSH1 0xFF AND PUSH2 0x9DB JUMPI PUSH1 0x40 MLOAD PUSH3 0x461BCD PUSH1 0xE5 SHL DUP2 MSTORE PUSH1 0x20 PUSH1 0x4 DUP3 ADD MSTORE PUSH1 0x13 PUSH1 0x24 DUP3 ADD MSTORE PUSH19 0x456C656374696F6E20697320636C6F73656421 PUSH1 0x68 SHL PUSH1 0x44 DUP3 ADD MSTORE PUSH1 0x64 ADD PUSH2 0x3F2 JUMP JUMPDEST PUSH2 0x9E6 DUP5 DUP5 DUP5 PUSH2 0x187 JUMP JUMPDEST PUSH2 0xA3E JUMPI PUSH1 0x40 MLOAD PUSH3 0x461BCD PUSH1 0xE5 SHL DUP2 MSTORE PUSH1 0x20 PUSH1 0x4 DUP3 ADD MSTORE PUSH1 0x23 PUSH1 0x24 DUP3 ADD MSTORE PUSH32 0x566F746572206469646E27742066756C66696C6C7320726571756972656D656E PUSH1 0x44 DUP3 ADD MSTORE PUSH3 0x747321 PUSH1 0xE8 SHL PUSH1 0x64 DUP3 ADD MSTORE PUSH1 0x84 ADD PUSH2 0x3F2 JUMP JUMPDEST PUSH1 0x0 PUSH1 0x1 DUP4 PUSH1 0x40 MLOAD PUSH2 0xA50 SWAP2 SWAP1 PUSH2 0xE94 JUMP JUMPDEST SWAP1 DUP2 MSTORE PUSH1 0x40 MLOAD SWAP1 DUP2 SWAP1 SUB PUSH1 0x20 ADD DUP2 KECCAK256 PUSH1 0x4 ADD DUP1 SLOAD SWAP3 ISZERO ISZERO PUSH1 0xFF NOT SWAP1 SWAP4 AND SWAP3 SWAP1 SWAP3 OR SWAP1 SWAP2 SSTORE PUSH1 0x1 SWAP1 PUSH1 0x2 SWAP1 PUSH2 0xA85 SWAP1 DUP5 SWAP1 PUSH2 0xE94 JUMP JUMPDEST SWAP1 DUP2 MSTORE PUSH1 0x20 ADD PUSH1 0x40 MLOAD DUP1 SWAP2 SUB SWAP1 KECCAK256 PUSH1 0x1 ADD PUSH1 0x0 DUP3 DUP3 SLOAD PUSH2 0xAA5 SWAP2 SWAP1 PUSH2 0xF00 JUMP JUMPDEST SWAP1 SWAP2 SSTORE POP POP POP POP POP POP JUMP JUMPDEST PUSH1 0x0 DUP2 PUSH1 0x40 MLOAD PUSH1 0x20 ADD PUSH2 0xAC3 SWAP2 SWAP1 PUSH2 0xE94 JUMP JUMPDEST PUSH1 0x40 MLOAD PUSH1 0x20 DUP2 DUP4 SUB SUB DUP2 MSTORE SWAP1 PUSH1 0x40 MSTORE DUP1 MLOAD SWAP1 PUSH1 0x20 ADD KECCAK256 DUP4 PUSH1 0x40 MLOAD PUSH1 0x20 ADD PUSH2 0xAEA SWAP2 SWAP1 PUSH2 0xE94 JUMP JUMPDEST PUSH1 0x40 MLOAD PUSH1 0x20 DUP2 DUP4 SUB SUB DUP2 MSTORE SWAP1 PUSH1 0x40 MSTORE DUP1 MLOAD SWAP1 PUSH1 0x20 ADD KECCAK256 SUB PUSH2 0xB0D JUMPI POP PUSH1 0x1 PUSH2 0xB11 JUMP JUMPDEST POP PUSH1 0x0 JUMPDEST SWAP3 SWAP2 POP POP JUMP JUMPDEST DUP1 MLOAD PUSH1 0x20 DUP2 DUP4 ADD DUP2 ADD DUP1 MLOAD PUSH1 0x2 DUP3 MSTORE SWAP3 DUP3 ADD SWAP2 SWAP1 SWAP4 ADD KECCAK256 SWAP2 MSTORE DUP1 SLOAD DUP2 SWAP1 PUSH2 0x903 SWAP1 PUSH2 0xEB0 JUMP JUMPDEST PUSH4 0x4E487B71 PUSH1 0xE0 SHL PUSH1 0x0 MSTORE PUSH1 0x41 PUSH1 0x4 MSTORE PUSH1 0x24 PUSH1 0x0 REVERT JUMPDEST PUSH1 0x0 DUP3 PUSH1 0x1F DUP4 ADD SLT PUSH2 0xB64 JUMPI PUSH1 0x0 DUP1 REVERT JUMPDEST DUP2 CALLDATALOAD PUSH8 0xFFFFFFFFFFFFFFFF DUP1 DUP3 GT ISZERO PUSH2 0xB7F JUMPI PUSH2 0xB7F PUSH2 0xB3D JUMP JUMPDEST PUSH1 0x40 MLOAD PUSH1 0x1F DUP4 ADD PUSH1 0x1F NOT SWAP1 DUP2 AND PUSH1 0x3F ADD AND DUP2 ADD SWAP1 DUP3 DUP3 GT DUP2 DUP4 LT OR ISZERO PUSH2 0xBA7 JUMPI PUSH2 0xBA7 PUSH2 0xB3D JUMP JUMPDEST DUP2 PUSH1 0x40 MSTORE DUP4 DUP2 MSTORE DUP7 PUSH1 0x20 DUP6 DUP9 ADD ADD GT ISZERO PUSH2 0xBC0 JUMPI PUSH1 0x0 DUP1 REVERT JUMPDEST DUP4 PUSH1 0x20 DUP8 ADD PUSH1 0x20 DUP4 ADD CALLDATACOPY PUSH1 0x0 PUSH1 0x20 DUP6 DUP4 ADD ADD MSTORE DUP1 SWAP5 POP POP POP POP POP SWAP3 SWAP2 POP POP JUMP JUMPDEST PUSH1 0x0 DUP1 PUSH1 0x0 PUSH1 0x60 DUP5 DUP7 SUB SLT ISZERO PUSH2 0xBF5 JUMPI PUSH1 0x0 DUP1 REVERT JUMPDEST DUP4 CALLDATALOAD PUSH8 0xFFFFFFFFFFFFFFFF DUP1 DUP3 GT ISZERO PUSH2 0xC0D JUMPI PUSH1 0x0 DUP1 REVERT JUMPDEST PUSH2 0xC19 DUP8 DUP4 DUP9 ADD PUSH2 0xB53 JUMP JUMPDEST SWAP5 POP PUSH1 0x20 DUP7 ADD CALLDATALOAD SWAP2 POP DUP1 DUP3 GT ISZERO PUSH2 0xC2F JUMPI PUSH1 0x0 DUP1 REVERT JUMPDEST PUSH2 0xC3B DUP8 DUP4 DUP9 ADD PUSH2 0xB53 JUMP JUMPDEST SWAP4 POP PUSH1 0x40 DUP7 ADD CALLDATALOAD SWAP2 POP DUP1 DUP3 GT ISZERO PUSH2 0xC51 JUMPI PUSH1 0x0 DUP1 REVERT JUMPDEST POP PUSH2 0xC5E DUP7 DUP3 DUP8 ADD PUSH2 0xB53 JUMP JUMPDEST SWAP2 POP POP SWAP3 POP SWAP3 POP SWAP3 JUMP JUMPDEST PUSH1 0x0 PUSH1 0x20 DUP3 DUP5 SUB SLT ISZERO PUSH2 0xC7A JUMPI PUSH1 0x0 DUP1 REVERT JUMPDEST DUP2 CALLDATALOAD PUSH8 0xFFFFFFFFFFFFFFFF DUP2 GT ISZERO PUSH2 0xC91 JUMPI PUSH1 0x0 DUP1 REVERT JUMPDEST PUSH2 0xC9D DUP5 DUP3 DUP6 ADD PUSH2 0xB53 JUMP JUMPDEST SWAP5 SWAP4 POP POP POP POP JUMP JUMPDEST PUSH1 0x0 JUMPDEST DUP4 DUP2 LT ISZERO PUSH2 0xCC0 JUMPI DUP2 DUP2 ADD MLOAD DUP4 DUP3 ADD MSTORE PUSH1 0x20 ADD PUSH2 0xCA8 JUMP JUMPDEST POP POP PUSH1 0x0 SWAP2 ADD MSTORE JUMP JUMPDEST PUSH1 0x0 DUP2 MLOAD DUP1 DUP5 MSTORE PUSH2 0xCE1 DUP2 PUSH1 0x20 DUP7 ADD PUSH1 0x20 DUP7 ADD PUSH2 0xCA5 JUMP JUMPDEST PUSH1 0x1F ADD PUSH1 0x1F NOT AND SWAP3 SWAP1 SWAP3 ADD PUSH1 0x20 ADD SWAP3 SWAP2 POP POP JUMP JUMPDEST PUSH1 0xA0 DUP2 MSTORE PUSH1 0x0 PUSH2 0xD08 PUSH1 0xA0 DUP4 ADD DUP9 PUSH2 0xCC9 JUMP JUMPDEST DUP3 DUP2 SUB PUSH1 0x20 DUP5 ADD MSTORE PUSH2 0xD1A DUP2 DUP9 PUSH2 0xCC9 JUMP JUMPDEST SWAP1 POP DUP3 DUP2 SUB PUSH1 0x40 DUP5 ADD MSTORE PUSH2 0xD2E DUP2 DUP8 PUSH2 0xCC9 JUMP JUMPDEST PUSH1 0x60 DUP5 ADD SWAP6 SWAP1 SWAP6 MSTORE POP POP SWAP1 ISZERO ISZERO PUSH1 0x80 SWAP1 SWAP2 ADD MSTORE SWAP4 SWAP3 POP POP POP JUMP JUMPDEST PUSH1 0x0 PUSH1 0x20 DUP3 DUP5 SUB SLT ISZERO PUSH2 0xD5A JUMPI PUSH1 0x0 DUP1 REVERT JUMPDEST POP CALLDATALOAD SWAP2 SWAP1 POP JUMP JUMPDEST PUSH1 0x40 DUP2 MSTORE PUSH1 0x0 PUSH2 0xD74 PUSH1 0x40 DUP4 ADD DUP6 PUSH2 0xCC9 JUMP JUMPDEST SWAP1 POP DUP3 PUSH1 0x20 DUP4 ADD MSTORE SWAP4 SWAP3 POP POP POP JUMP JUMPDEST PUSH1 0x0 DUP1 PUSH1 0x0 DUP1 PUSH1 0x80 DUP6 DUP8 SUB SLT ISZERO PUSH2 0xD99 JUMPI PUSH1 0x0 DUP1 REVERT JUMPDEST DUP5 CALLDATALOAD PUSH8 0xFFFFFFFFFFFFFFFF DUP1 DUP3 GT ISZERO PUSH2 0xDB1 JUMPI PUSH1 0x0 DUP1 REVERT JUMPDEST PUSH2 0xDBD DUP9 DUP4 DUP10 ADD PUSH2 0xB53 JUMP JUMPDEST SWAP6 POP PUSH1 0x20 DUP8 ADD CALLDATALOAD SWAP2 POP DUP1 DUP3 GT ISZERO PUSH2 0xDD3 JUMPI PUSH1 0x0 DUP1 REVERT JUMPDEST PUSH2 0xDDF DUP9 DUP4 DUP10 ADD PUSH2 0xB53 JUMP JUMPDEST SWAP5 POP PUSH1 0x40 DUP8 ADD CALLDATALOAD SWAP2 POP DUP1 DUP3 GT ISZERO PUSH2 0xDF5 JUMPI PUSH1 0x0 DUP1 REVERT JUMPDEST PUSH2 0xE01 DUP9 DUP4 DUP10 ADD PUSH2 0xB53 JUMP JUMPDEST SWAP4 POP PUSH1 0x60 DUP8 ADD CALLDATALOAD SWAP2 POP DUP1 DUP3 GT ISZERO PUSH2 0xE17 JUMPI PUSH1 0x0 DUP1 REVERT JUMPDEST POP PUSH2 0xE24 DUP8 DUP3 DUP9 ADD PUSH2 0xB53 JUMP JUMPDEST SWAP2 POP POP SWAP3 SWAP6 SWAP2 SWAP5 POP SWAP3 POP JUMP JUMPDEST PUSH1 0x0 DUP1 PUSH1 0x40 DUP4 DUP6 SUB SLT ISZERO PUSH2 0xE43 JUMPI PUSH1 0x0 DUP1 REVERT JUMPDEST DUP3 CALLDATALOAD PUSH8 0xFFFFFFFFFFFFFFFF DUP1 DUP3 GT ISZERO PUSH2 0xE5B JUMPI PUSH1 0x0 DUP1 REVERT JUMPDEST PUSH2 0xE67 DUP7 DUP4 DUP8 ADD PUSH2 0xB53 JUMP JUMPDEST SWAP4 POP PUSH1 0x20 DUP6 ADD CALLDATALOAD SWAP2 POP DUP1 DUP3 GT ISZERO PUSH2 0xE7D JUMPI PUSH1 0x0 DUP1 REVERT JUMPDEST POP PUSH2 0xE8A DUP6 DUP3 DUP7 ADD PUSH2 0xB53 JUMP JUMPDEST SWAP2 POP POP SWAP3 POP SWAP3 SWAP1 POP JUMP JUMPDEST PUSH1 0x0 DUP3 MLOAD PUSH2 0xEA6 DUP2 DUP5 PUSH1 0x20 DUP8 ADD PUSH2 0xCA5 JUMP JUMPDEST SWAP2 SWAP1 SWAP2 ADD SWAP3 SWAP2 POP POP JUMP JUMPDEST PUSH1 0x1 DUP2 DUP2 SHR SWAP1 DUP3 AND DUP1 PUSH2 0xEC4 JUMPI PUSH1 0x7F DUP3 AND SWAP2 POP JUMPDEST PUSH1 0x20 DUP3 LT DUP2 SUB PUSH2 0xEE4 JUMPI PUSH4 0x4E487B71 PUSH1 0xE0 SHL PUSH1 0x0 MSTORE PUSH1 0x22 PUSH1 0x4 MSTORE PUSH1 0x24 PUSH1 0x0 REVERT JUMPDEST POP SWAP2 SWAP1 POP JUMP JUMPDEST PUSH4 0x4E487B71 PUSH1 0xE0 SHL PUSH1 0x0 MSTORE PUSH1 0x32 PUSH1 0x4 MSTORE PUSH1 0x24 PUSH1 0x0 REVERT JUMPDEST DUP1 DUP3 ADD DUP1 DUP3 GT ISZERO PUSH2 0xB11 JUMPI PUSH4 0x4E487B71 PUSH1 0xE0 SHL PUSH1 0x0 MSTORE PUSH1 0x11 PUSH1 0x4 MSTORE PUSH1 0x24 PUSH1 0x0 REVERT INVALID LOG2 PUSH5 0x6970667358 0x22 SLT KECCAK256 JUMPI 0xFC PUSH10 0xDC78F940411B023176EB DUP12 0x4E DUP9 0xA6 RETURNDATASIZE RETURN CODESIZE SLOAD 0x4E LOG3 0xCA SGT CALLDATASIZE PUSH10 0x4241B6942864736F6C63 NUMBER STOP ADDMOD GT STOP CALLER ","sha1":"380e623a51650826426f0928635a0e3c1e018104","source":"// SPDX-License-Identifier: MIT\n\npragma solidity >=0.7.0 <0.9.0;\n\ncontract VotingSystem {\n    struct Voter {\n        string name;\n        string surname;\n        string PESEL; // Identity number\n        int256 age; // to check if in proper age to vote\n        bool allowedToVote; // voted or not ? Or does his rights to vote exist?\n    }\n\n    struct Candidate {\n        string name;\n        uint256 receivedVotes; // which place candidate took after finished voting\n    }\n\n    address public electionChief;\n    bool public electionOpen;\n\n    mapping(string => Voter) public voters; // voter's PESEL => Voter ---- consider using a list of voters indexed by int(PESEL)\n    mapping(string => Candidate) public candidates; // candidate's name => Candidate\n\n    Candidate[] public listOfCandidates;\n\n    constructor() {\n        electionChief = msg.sender;\n        electionOpen = true;\n\n        initializeVoters();\n        initializeCandidates();\n    }\n\n    function vote(\n        string memory voterName,\n        string memory voterSurname,\n        string memory voterPESEL,\n        string memory candidateName\n    ) public {\n        require(electionOpen, \"Election is closed!\");\n        require(\n            verifyVoter(voterName, voterSurname, voterPESEL),\n            \"Voter didn't fulfills requirements!\"\n        );\n        voters[voterPESEL].allowedToVote = false;\n        candidates[candidateName].receivedVotes += 1;\n    }\n\n    function verifyVoter(\n        string memory voterName,\n        string memory voterSurname,\n        string memory voterPESEL\n    ) public view returns (bool voterEligible) {\n        Voter memory currentVoter = voters[voterPESEL];\n        require(\n            isTheSameString(currentVoter.PESEL, voterPESEL),\n            \"This person doesn't exists in voters database!\"\n        );\n        require(\n            isTheSameString(currentVoter.name, voterName),\n            \"The name of the person is not correct!\"\n        );\n        require(\n            isTheSameString(currentVoter.surname, voterSurname),\n            \"The surname of the person is not correct!\"\n        );\n        require(currentVoter.age >= 18, \"The person is not an adult!\");\n        require(\n            currentVoter.allowedToVote,\n            \"The person is not allowed to vote!\"\n        );\n        return true; // Check if this won't work if required aren't fulfilled!!!\n    }\n\n    modifier onlyOwner() {\n        require(msg.sender == electionChief, \"Not the contract owner!\");\n        _;\n    }\n\n    function finishElection() public onlyOwner {\n        electionOpen = false;\n        listOfCandidates[0].receivedVotes = candidates[\"Kandydat 1\"]\n            .receivedVotes;\n        listOfCandidates[1].receivedVotes = candidates[\"Kandydat 2\"]\n            .receivedVotes;\n        listOfCandidates[2].receivedVotes = candidates[\"Kandydat 3\"]\n            .receivedVotes;\n    }\n\n    function initializeCandidates() internal {\n        listOfCandidates.push(\n            Candidate({name: \"Kandydat 1\", receivedVotes: 0})\n        );\n        listOfCandidates.push(\n            Candidate({name: \"Kandydat 2\", receivedVotes: 0})\n        );\n        listOfCandidates.push(\n            Candidate({name: \"Kandydat 3\", receivedVotes: 0})\n        );\n        candidates[\"Kandydat 1\"] = listOfCandidates[0];\n        candidates[\"Kandydat 2\"] = listOfCandidates[1];\n        candidates[\"Kandydat 3\"] = listOfCandidates[2];\n    }\n\n    function initializeVoters() internal {\n        voters[\"00223390432\"] = Voter({\n            name: \"Jan\",\n            surname: \"Kowalski\",\n            PESEL: \"00223390432\",\n            age: 22,\n            allowedToVote: true\n        });\n        voters[\"90022074332\"] = Voter({\n            name: \"Halina\",\n            surname: \"Nowak\",\n            PESEL: \"90022074332\",\n            age: 32,\n            allowedToVote: true\n        });\n        voters[\"93031065465\"] = Voter({\n            name: \"Ludwik\",\n            surname: \"Montgommery\",\n            PESEL: \"93031065465\",\n            age: 29,\n            allowedToVote: true\n        });\n        voters[\"80030485668\"] = Voter({\n            name: \"Katarzyna\",\n            surname: \"Mak\",\n            PESEL: \"80030485668\",\n            age: 42,\n            allowedToVote: true\n        });\n        voters[\"91080196662\"] = Voter({\n            name: \"Joanna\",\n            surname: \"Zych\",\n            PESEL: \"91080196662\",\n            age: 31,\n            allowedToVote: true\n        });\n        voters[\"01302417347\"] = Voter({\n            name: \"Monika\",\n            surname: \"Grabowska\",\n            PESEL: \"01302417347\",\n            age: 21,\n            allowedToVote: true\n        });\n        voters[\"00221724457\"] = Voter({\n            name: \"Dariusz\",\n            surname: \"Duda\",\n            PESEL: \"00221724457\",\n            age: 22,\n            allowedToVote: true\n        });\n        voters[\"11301926436\"] = Voter({\n            name: \"Karol\",\n            surname: \"Nowak\",\n            PESEL: \"11301926436\",\n            age: 11,\n            allowedToVote: false\n        });\n    }\n\n    function isTheSameString(string memory stringOne, string memory stringTwo)\n        public\n        pure\n        returns (bool)\n    {\n        // Compare string keccak256 hashes to check equality\n        if (\n            keccak256(abi.encodePacked(stringOne)) ==\n            keccak256(abi.encodePacked(stringTwo))\n        ) {\n            return true;\n        }\n        return false;\n    }\n\n    // Found Function - maybe will be usefull in aim to index listOfCandidates by PESEL\n    /*\n    function st2num(string memory numString) public pure returns(uint) {\n        uint  val=0;\n        bytes   memory stringBytes = bytes(numString);\n        for (uint  i =  0; i<stringBytes.length; i++) {\n            uint exp = stringBytes.length - i;\n            bytes1 ival = stringBytes[i];\n            uint8 uval = uint8(ival);\n           uint jval = uval - uint(0x30);\n   \n           val +=  (uint(jval) * (10**(exp-1))); \n        }\n      return val;\n    }\n    */\n}\n","sourcePath":"contracts/VotingSystem.sol","type":"contract","deployment":{"address":"0x4794CBb3A1BAedeFB453C4d2042B711bC7eeca89","chainid":"5","blockHeight":8048202}}