{
  "abi": [
    {
      "inputs": [],
      "stateMutability": "nonpayable",
      "type": "constructor"
    },
    {
      "inputs": [
        {
          "internalType": "string",
          "name": "",
          "type": "string"
        }
      ],
      "name": "candidates",
      "outputs": [
        {
          "internalType": "string",
          "name": "name",
          "type": "string"
        },
        {
          "internalType": "uint256",
          "name": "receivedVotes",
          "type": "uint256"
        }
      ],
      "stateMutability": "view",
      "type": "function"
    },
    {
      "inputs": [],
      "name": "electionChief",
      "outputs": [
        {
          "internalType": "address",
          "name": "",
          "type": "address"
        }
      ],
      "stateMutability": "view",
      "type": "function"
    },
    {
      "inputs": [],
      "name": "electionOpen",
      "outputs": [
        {
          "internalType": "bool",
          "name": "",
          "type": "bool"
        }
      ],
      "stateMutability": "view",
      "type": "function"
    },
    {
      "inputs": [],
      "name": "finishElection",
      "outputs": [],
      "stateMutability": "nonpayable",
      "type": "function"
    },
    {
      "inputs": [
        {
          "internalType": "string",
          "name": "stringOne",
          "type": "string"
        },
        {
          "internalType": "string",
          "name": "stringTwo",
          "type": "string"
        }
      ],
      "name": "isTheSameString",
      "outputs": [
        {
          "internalType": "bool",
          "name": "",
          "type": "bool"
        }
      ],
      "stateMutability": "pure",
      "type": "function"
    },
    {
      "inputs": [
        {
          "internalType": "uint256",
          "name": "",
          "type": "uint256"
        }
      ],
      "name": "listOfCandidates",
      "outputs": [
        {
          "internalType": "string",
          "name": "name",
          "type": "string"
        },
        {
          "internalType": "uint256",
          "name": "receivedVotes",
          "type": "uint256"
        }
      ],
      "stateMutability": "view",
      "type": "function"
    },
    {
      "inputs": [
        {
          "internalType": "string",
          "name": "voterName",
          "type": "string"
        },
        {
          "internalType": "string",
          "name": "voterSurname",
          "type": "string"
        },
        {
          "internalType": "string",
          "name": "voterPESEL",
          "type": "string"
        }
      ],
      "name": "verifyVoter",
      "outputs": [
        {
          "internalType": "bool",
          "name": "voterEligible",
          "type": "bool"
        }
      ],
      "stateMutability": "view",
      "type": "function"
    },
    {
      "inputs": [
        {
          "internalType": "string",
          "name": "voterName",
          "type": "string"
        },
        {
          "internalType": "string",
          "name": "voterSurname",
          "type": "string"
        },
        {
          "internalType": "string",
          "name": "voterPESEL",
          "type": "string"
        },
        {
          "internalType": "string",
          "name": "candidateName",
          "type": "string"
        }
      ],
      "name": "vote",
      "outputs": [],
      "stateMutability": "nonpayable",
      "type": "function"
    },
    {
      "inputs": [
        {
          "internalType": "string",
          "name": "",
          "type": "string"
        }
      ],
      "name": "voters",
      "outputs": [
        {
          "internalType": "string",
          "name": "name",
          "type": "string"
        },
        {
          "internalType": "string",
          "name": "surname",
          "type": "string"
        },
        {
          "internalType": "string",
          "name": "PESEL",
          "type": "string"
        },
        {
          "internalType": "int16",
          "name": "age",
          "type": "int16"
        },
        {
          "internalType": "bool",
          "name": "allowedToVote",
          "type": "bool"
        }
      ],
      "stateMutability": "view",
      "type": "function"
    },
    {
      "inputs": [
        {
          "internalType": "string",
          "name": "candidateName",
          "type": "string"
        }
      ],
      "name": "votesValue",
      "outputs": [
        {
          "internalType": "uint256",
          "name": "",
          "type": "uint256"
        }
      ],
      "stateMutability": "view",
      "type": "function"
    }
  ],
  "bytecode": "60806040523480156200001157600080fd5b506000805460ff60a01b1933166001600160a81b031990911617600160a01b1790556200003d6200004d565b6200004762000929565b62000e32565b6040518060a00160405280604051806040016040528060038152602001622530b760e91b8152508152602001604051806040016040528060088152602001674b6f77616c736b6960c01b81525081526020016040518060400160405280600b81526020016a1818191919999c981a199960a91b8152508152602001601660010b8152602001600115158152506001604051620000fa906a1818191919999c981a199960a91b8152600b0190565b9081526040519081900360200190208151819062000119908262000c67565b506020820151600182019062000130908262000c67565b506040820151600282019062000147908262000c67565b50606082810151600390920180546080948501511515620100000262ffffff1990911661ffff90941693909317929092179091556040805160e081018252600660a082019081526548616c696e6160d01b60c083015281528151808301835260058152644e6f77616b60d81b6020828101919091528083019190915282518084018452600b81526a1c98181919181b9a19999960a91b81830152828401529281019290925260019282018390525190919062000214906a1c98181919181b9a19999960a91b8152600b0190565b9081526040519081900360200190208151819062000233908262000c67565b50602082015160018201906200024a908262000c67565b506040820151600282019062000261908262000c67565b5060608281015160039290920180546080948501511515620100000262ffffff1990911661ffff90941693909317929092179091556040805160e081018252600660a08201908152654c756477696b60d01b60c0830152815281518083018352600b8082526a4d6f6e74676f6d6d65727960a81b60208381019190915280840192909252835180850185528181526a393330333130363534363560a81b92810183905283850152601d94830194909452600194820185905291519182529291019081526040519081900360200190208151819062000340908262000c67565b506020820151600182019062000357908262000c67565b50604082015160028201906200036e908262000c67565b50606082810151600392830180546080958601511515620100000262ffffff1990911661ffff909316929092179190911790556040805160e081018252600960a08201908152684b617461727a796e6160b81b60c0830152815281518083018352938452624d616b60e81b6020858101919091528082019490945281518083018352600b8082526a0706060666068706a6c6c760ab1b95820186905282840191909152602a93820193909352600194810185905290519283529291019081526040519081900360200190208151819062000449908262000c67565b506020820151600182019062000460908262000c67565b506040820151600282019062000477908262000c67565b50606082810151600390920180546080948501511515620100000262ffffff1990911661ffff90941693909317929092179091556040805160e081018252600660a08201908152654a6f616e6e6160d01b60c083015281528151808301835260048152630b4f2c6d60e31b6020828101919091528083019190915282518084018452600b81526a1c98981c18189c9b1b1b1960a91b9181019190915281830152601f9281019290925260019282018390525190919062000548906a1c98981c18189c9b1b1b1960a91b8152600b0190565b9081526040519081900360200190208151819062000567908262000c67565b50602082015160018201906200057e908262000c67565b506040820151600282019062000595908262000c67565b50606082810151600390920180546080948501511515620100000262ffffff1990911661ffff90941693909317929092179091556040805160e081018252600660a08201908152654d6f6e696b6160d01b60c08301528152815180830183526009815268477261626f77736b6160b81b6020828101919091528083019190915282518084018452600b81526a303133303234313733343760a81b91810191909152818301526015928101929092526001928201839052519091906200066b906a303133303234313733343760a81b8152600b0190565b908152604051908190036020019020815181906200068a908262000c67565b5060208201516001820190620006a1908262000c67565b5060408201516002820190620006b8908262000c67565b50606082810151600390920180546080948501511515620100000262ffffff1990911661ffff90941693909317929092179091556040805160e081018252600760a08201908152662230b934bab9bd60c91b60c083015281528151808301835260048152634475646160e01b6020828101919091528083019190915282518084018452600b81526a303032323137323434353760a81b91810191909152818301526016928101929092526001928201839052519091906200078a906a303032323137323434353760a81b8152600b0190565b90815260405190819003602001902081518190620007a9908262000c67565b5060208201516001820190620007c0908262000c67565b5060408201516002820190620007d7908262000c67565b50606082810151600390920180546080948501511515620100000262ffffff1990911661ffff90941693909317929092179091556040805160e081018252600560a082018181526412d85c9bdb60da1b60c0840152825282518084018452908152644e6f77616b60d81b6020828101919091528083019190915282518084018452600b8082526a18989998189c991b1a199b60a91b9282019290925282840152928101929092526000928201929092529051600190620008a8906a18989998189c991b1a199b60a91b8152600b0190565b90815260405190819003602001902081518190620008c7908262000c67565b5060208201516001820190620008de908262000c67565b5060408201516002820190620008f5908262000c67565b506060820151600390910180546080909301511515620100000262ffffff1990931661ffff90921691909117919091179055565b60408051608081018252600a918101918252694b616e6479646174203160b01b60608201529081526000602082018190526003805460018101825591528151600290910260008051602062001e08833981519152019081906200098d908262000c67565b5060209182015160019182015560408051608081018252600a9181019182526925b0b7323cb230ba101960b11b606082015290815260009281018390526003805492830181559092528151600290910260008051602062001e0883398151915201908190620009fd908262000c67565b5060209182015160019182015560408051608081018252600a918101918252694b616e6479646174203360b01b606082015290815260009281018390526003805492830181559092528151600290910260008051602062001e088339815191520190819062000a6d908262000c67565b50602082015181600101555050600360008154811062000a915762000a9162000d33565b9060005260206000209060020201600260405162000abf90694b616e6479646174203160b01b8152600a0190565b9081526040519081900360200190208062000adb838262000d49565b5060018201548160010155905050600360018154811062000b005762000b0062000d33565b9060005260206000209060020201600260405162000b2e906925b0b7323cb230ba101960b11b8152600a0190565b9081526040519081900360200190208062000b4a838262000d49565b5060019182015491015560038054600290811062000b6c5762000b6c62000d33565b9060005260206000209060020201600260405162000b9a90694b616e6479646174203360b01b8152600a0190565b9081526040519081900360200190208062000bb6838262000d49565b50600191820154910155565b634e487b7160e01b600052604160045260246000fd5b600181811c9082168062000bed57607f821691505b60208210810362000c0e57634e487b7160e01b600052602260045260246000fd5b50919050565b601f82111562000c6257600081815260208120601f850160051c8101602086101562000c3d5750805b601f850160051c820191505b8181101562000c5e5782815560010162000c49565b5050505b505050565b81516001600160401b0381111562000c835762000c8362000bc2565b62000c9b8162000c94845462000bd8565b8462000c14565b602080601f83116001811462000cd3576000841562000cba5750858301515b600019600386901b1c1916600185901b17855562000c5e565b600085815260208120601f198616915b8281101562000d045788860151825594840194600190910190840162000ce3565b508582101562000d235787850151600019600388901b60f8161c191681555b5050505050600190811b01905550565b634e487b7160e01b600052603260045260246000fd5b81810362000d55575050565b62000d61825462000bd8565b6001600160401b0381111562000d7b5762000d7b62000bc2565b62000d8c8162000c94845462000bd8565b6000601f82116001811462000dc3576000831562000daa5750848201545b600019600385901b1c1916600184901b17845562000e2b565b600085815260209020601f19841690600086815260209020845b8381101562000dff578286015482556001958601959091019060200162000ddd565b508583101562000e1e5781850154600019600388901b60f8161c191681555b50505060018360011b0184555b5050505050565b610fc68062000e426000396000f3fe608060405234801561001057600080fd5b506004361061009e5760003560e01c80639017386411610066578063901738641461014f57806392d7df4a146101595780639b3bc1561461017a578063b2fd53641461018d578063c5539cc2146101a057600080fd5b80634a39d442146100a35780634f834f1c146100cc57806353fa2e64146100df57806365e0647d146101035780638871d5bb1461012e575b600080fd5b6000546100b790600160a01b900460ff1681565b60405190151581526020015b60405180910390f35b6100b76100da366004610c4c565b6101b3565b6100f26100ed366004610cd4565b6105c0565b6040516100c3959493929190610d61565b600054610116906001600160a01b031681565b6040516001600160a01b0390911681526020016100c3565b61014161013c366004610cd4565b61079b565b6040519081526020016100c3565b6101576107c6565b005b61016c610167366004610db7565b610937565b6040516100c3929190610dd0565b610157610188366004610df2565b6109f3565b6100b761019b366004610e9f565b610b1c565b61016c6101ae366004610cd4565b610b83565b6000806001836040516101c69190610f03565b90815260200160405180910390206040518060a00160405290816000820180546101ef90610f1f565b80601f016020809104026020016040519081016040528092919081815260200182805461021b90610f1f565b80156102685780601f1061023d57610100808354040283529160200191610268565b820191906000526020600020905b81548152906001019060200180831161024b57829003601f168201915b5050505050815260200160018201805461028190610f1f565b80601f01602080910402602001604051908101604052809291908181526020018280546102ad90610f1f565b80156102fa5780601f106102cf576101008083540402835291602001916102fa565b820191906000526020600020905b8154815290600101906020018083116102dd57829003601f168201915b5050505050815260200160028201805461031390610f1f565b80601f016020809104026020016040519081016040528092919081815260200182805461033f90610f1f565b801561038c5780601f106103615761010080835404028352916020019161038c565b820191906000526020600020905b81548152906001019060200180831161036f57829003601f168201915b505050918352505060039190910154600181900b602083015262010000900460ff1615156040918201528101519091506103c69084610b1c565b61042e5760405162461bcd60e51b815260206004820152602e60248201527f5468697320706572736f6e20646f65736e27742065786973747320696e20766f60448201526d746572732064617461626173652160901b60648201526084015b60405180910390fd5b805161043a9086610b1c565b6104955760405162461bcd60e51b815260206004820152602660248201527f546865206e616d65206f662074686520706572736f6e206973206e6f7420636f60448201526572726563742160d01b6064820152608401610425565b6104a3816020015185610b1c565b6105015760405162461bcd60e51b815260206004820152602960248201527f546865207375726e616d65206f662074686520706572736f6e206973206e6f7460448201526820636f72726563742160b81b6064820152608401610425565b6012816060015160010b12156105595760405162461bcd60e51b815260206004820152601b60248201527f54686520706572736f6e206973206e6f7420616e206164756c742100000000006044820152606401610425565b80608001516105b55760405162461bcd60e51b815260206004820152602260248201527f54686520706572736f6e206973206e6f7420616c6c6f77656420746f20766f74604482015261652160f01b6064820152608401610425565b506001949350505050565b80516020818301810180516001825292820191909301209152805481906105e690610f1f565b80601f016020809104026020016040519081016040528092919081815260200182805461061290610f1f565b801561065f5780601f106106345761010080835404028352916020019161065f565b820191906000526020600020905b81548152906001019060200180831161064257829003601f168201915b50505050509080600101805461067490610f1f565b80601f01602080910402602001604051908101604052809291908181526020018280546106a090610f1f565b80156106ed5780601f106106c2576101008083540402835291602001916106ed565b820191906000526020600020905b8154815290600101906020018083116106d057829003601f168201915b50505050509080600201805461070290610f1f565b80601f016020809104026020016040519081016040528092919081815260200182805461072e90610f1f565b801561077b5780601f106107505761010080835404028352916020019161077b565b820191906000526020600020905b81548152906001019060200180831161075e57829003601f168201915b50505060039093015491925050600181900b9060ff620100009091041685565b60006002826040516107ad9190610f03565b9081526020016040518091039020600101549050919050565b6000546001600160a01b031633146108205760405162461bcd60e51b815260206004820152601760248201527f4e6f742074686520636f6e7472616374206f776e6572210000000000000000006044820152606401610425565b6000805460ff60a01b19169055604051694b616e6479646174203160b01b8152600290600a01908152602001604051809103902060010154600360008154811061086c5761086c610f59565b90600052602060002090600202016001018190555060026040516108a0906925b0b7323cb230ba101960b11b8152600a0190565b90815260200160405180910390206001015460036001815481106108c6576108c6610f59565b90600052602060002090600202016001018190555060026040516108fa90694b616e6479646174203360b01b8152600a0190565b908152602001604051809103902060010154600360028154811061092057610920610f59565b906000526020600020906002020160010181905550565b6003818154811061094757600080fd5b906000526020600020906002020160009150905080600001805461096a90610f1f565b80601f016020809104026020016040519081016040528092919081815260200182805461099690610f1f565b80156109e35780601f106109b8576101008083540402835291602001916109e3565b820191906000526020600020905b8154815290600101906020018083116109c657829003601f168201915b5050505050908060010154905082565b600054600160a01b900460ff16610a425760405162461bcd60e51b8152602060048201526013602482015272456c656374696f6e20697320636c6f7365642160681b6044820152606401610425565b610a4d8484846101b3565b610aa55760405162461bcd60e51b815260206004820152602360248201527f566f746572206469646e27742066756c66696c6c7320726571756972656d656e60448201526274732160e81b6064820152608401610425565b6000600183604051610ab79190610f03565b908152602001604051809103902060030160026101000a81548160ff0219169083151502179055506001600282604051610af19190610f03565b90815260200160405180910390206001016000828254610b119190610f6f565b909155505050505050565b600081604051602001610b2f9190610f03565b6040516020818303038152906040528051906020012083604051602001610b569190610f03565b6040516020818303038152906040528051906020012003610b7957506001610b7d565b5060005b92915050565b805160208183018101805160028252928201919093012091528054819061096a90610f1f565b634e487b7160e01b600052604160045260246000fd5b600082601f830112610bd057600080fd5b813567ffffffffffffffff80821115610beb57610beb610ba9565b604051601f8301601f19908116603f01168101908282118183101715610c1357610c13610ba9565b81604052838152866020858801011115610c2c57600080fd5b836020870160208301376000602085830101528094505050505092915050565b600080600060608486031215610c6157600080fd5b833567ffffffffffffffff80821115610c7957600080fd5b610c8587838801610bbf565b94506020860135915080821115610c9b57600080fd5b610ca787838801610bbf565b93506040860135915080821115610cbd57600080fd5b50610cca86828701610bbf565b9150509250925092565b600060208284031215610ce657600080fd5b813567ffffffffffffffff811115610cfd57600080fd5b610d0984828501610bbf565b949350505050565b60005b83811015610d2c578181015183820152602001610d14565b50506000910152565b60008151808452610d4d816020860160208601610d11565b601f01601f19169290920160200192915050565b60a081526000610d7460a0830188610d35565b8281036020840152610d868188610d35565b90508281036040840152610d9a8187610d35565b60019590950b606084015250509015156080909101529392505050565b600060208284031215610dc957600080fd5b5035919050565b604081526000610de36040830185610d35565b90508260208301529392505050565b60008060008060808587031215610e0857600080fd5b843567ffffffffffffffff80821115610e2057600080fd5b610e2c88838901610bbf565b95506020870135915080821115610e4257600080fd5b610e4e88838901610bbf565b94506040870135915080821115610e6457600080fd5b610e7088838901610bbf565b93506060870135915080821115610e8657600080fd5b50610e9387828801610bbf565b91505092959194509250565b60008060408385031215610eb257600080fd5b823567ffffffffffffffff80821115610eca57600080fd5b610ed686838701610bbf565b93506020850135915080821115610eec57600080fd5b50610ef985828601610bbf565b9150509250929050565b60008251610f15818460208701610d11565b9190910192915050565b600181811c90821680610f3357607f821691505b602082108103610f5357634e487b7160e01b600052602260045260246000fd5b50919050565b634e487b7160e01b600052603260045260246000fd5b80820180821115610b7d57634e487b7160e01b600052601160045260246000fdfea2646970667358221220f9f6f27c905b6ea6b2700d528db931d1ef70211d33d74e3df05c7bc0868676de64736f6c63430008110033c2575a0e9e593c00f959f8c92f12db2869c3395a3b0502d05e2516446f71f85b",
  "bytecodeSha1": "da39a3ee5e6b4b0d3255bfef95601890afd80709",
  "compiler": {
    "evm_version": "istanbul",
    "optimizer": {
      "enabled": true,
      "runs": 200
    },
    "version": "0.8.17+commit.8df45f5f"
  },
  "contractName": "VotingSystem",
  "language": "Solidity",
  "natspec": {
    "kind": "dev",
    "methods": {},
    "version": 1
  },
  "opcodes": "PUSH1 0x80 PUSH1 0x40 MSTORE CALLVALUE DUP1 ISZERO PUSH2 0x10 JUMPI PUSH1 0x0 DUP1 REVERT JUMPDEST POP PUSH1 0x4 CALLDATASIZE LT PUSH2 0x9E JUMPI PUSH1 0x0 CALLDATALOAD PUSH1 0xE0 SHR DUP1 PUSH4 0x90173864 GT PUSH2 0x66 JUMPI DUP1 PUSH4 0x90173864 EQ PUSH2 0x14F JUMPI DUP1 PUSH4 0x92D7DF4A EQ PUSH2 0x159 JUMPI DUP1 PUSH4 0x9B3BC156 EQ PUSH2 0x17A JUMPI DUP1 PUSH4 0xB2FD5364 EQ PUSH2 0x18D JUMPI DUP1 PUSH4 0xC5539CC2 EQ PUSH2 0x1A0 JUMPI PUSH1 0x0 DUP1 REVERT JUMPDEST DUP1 PUSH4 0x4A39D442 EQ PUSH2 0xA3 JUMPI DUP1 PUSH4 0x4F834F1C EQ PUSH2 0xCC JUMPI DUP1 PUSH4 0x53FA2E64 EQ PUSH2 0xDF JUMPI DUP1 PUSH4 0x65E0647D EQ PUSH2 0x103 JUMPI DUP1 PUSH4 0x8871D5BB EQ PUSH2 0x12E JUMPI JUMPDEST PUSH1 0x0 DUP1 REVERT JUMPDEST PUSH1 0x0 SLOAD PUSH2 0xB7 SWAP1 PUSH1 0x1 PUSH1 0xA0 SHL SWAP1 DIV PUSH1 0xFF AND DUP2 JUMP JUMPDEST PUSH1 0x40 MLOAD SWAP1 ISZERO ISZERO DUP2 MSTORE PUSH1 0x20 ADD JUMPDEST PUSH1 0x40 MLOAD DUP1 SWAP2 SUB SWAP1 RETURN JUMPDEST PUSH2 0xB7 PUSH2 0xDA CALLDATASIZE PUSH1 0x4 PUSH2 0xC4C JUMP JUMPDEST PUSH2 0x1B3 JUMP JUMPDEST PUSH2 0xF2 PUSH2 0xED CALLDATASIZE PUSH1 0x4 PUSH2 0xCD4 JUMP JUMPDEST PUSH2 0x5C0 JUMP JUMPDEST PUSH1 0x40 MLOAD PUSH2 0xC3 SWAP6 SWAP5 SWAP4 SWAP3 SWAP2 SWAP1 PUSH2 0xD61 JUMP JUMPDEST PUSH1 0x0 SLOAD PUSH2 0x116 SWAP1 PUSH1 0x1 PUSH1 0x1 PUSH1 0xA0 SHL SUB AND DUP2 JUMP JUMPDEST PUSH1 0x40 MLOAD PUSH1 0x1 PUSH1 0x1 PUSH1 0xA0 SHL SUB SWAP1 SWAP2 AND DUP2 MSTORE PUSH1 0x20 ADD PUSH2 0xC3 JUMP JUMPDEST PUSH2 0x141 PUSH2 0x13C CALLDATASIZE PUSH1 0x4 PUSH2 0xCD4 JUMP JUMPDEST PUSH2 0x79B JUMP JUMPDEST PUSH1 0x40 MLOAD SWAP1 DUP2 MSTORE PUSH1 0x20 ADD PUSH2 0xC3 JUMP JUMPDEST PUSH2 0x157 PUSH2 0x7C6 JUMP JUMPDEST STOP JUMPDEST PUSH2 0x16C PUSH2 0x167 CALLDATASIZE PUSH1 0x4 PUSH2 0xDB7 JUMP JUMPDEST PUSH2 0x937 JUMP JUMPDEST PUSH1 0x40 MLOAD PUSH2 0xC3 SWAP3 SWAP2 SWAP1 PUSH2 0xDD0 JUMP JUMPDEST PUSH2 0x157 PUSH2 0x188 CALLDATASIZE PUSH1 0x4 PUSH2 0xDF2 JUMP JUMPDEST PUSH2 0x9F3 JUMP JUMPDEST PUSH2 0xB7 PUSH2 0x19B CALLDATASIZE PUSH1 0x4 PUSH2 0xE9F JUMP JUMPDEST PUSH2 0xB1C JUMP JUMPDEST PUSH2 0x16C PUSH2 0x1AE CALLDATASIZE PUSH1 0x4 PUSH2 0xCD4 JUMP JUMPDEST PUSH2 0xB83 JUMP JUMPDEST PUSH1 0x0 DUP1 PUSH1 0x1 DUP4 PUSH1 0x40 MLOAD PUSH2 0x1C6 SWAP2 SWAP1 PUSH2 0xF03 JUMP JUMPDEST SWAP1 DUP2 MSTORE PUSH1 0x20 ADD PUSH1 0x40 MLOAD DUP1 SWAP2 SUB SWAP1 KECCAK256 PUSH1 0x40 MLOAD DUP1 PUSH1 0xA0 ADD PUSH1 0x40 MSTORE SWAP1 DUP2 PUSH1 0x0 DUP3 ADD DUP1 SLOAD PUSH2 0x1EF SWAP1 PUSH2 0xF1F JUMP JUMPDEST DUP1 PUSH1 0x1F ADD PUSH1 0x20 DUP1 SWAP2 DIV MUL PUSH1 0x20 ADD PUSH1 0x40 MLOAD SWAP1 DUP2 ADD PUSH1 0x40 MSTORE DUP1 SWAP3 SWAP2 SWAP1 DUP2 DUP2 MSTORE PUSH1 0x20 ADD DUP3 DUP1 SLOAD PUSH2 0x21B SWAP1 PUSH2 0xF1F JUMP JUMPDEST DUP1 ISZERO PUSH2 0x268 JUMPI DUP1 PUSH1 0x1F LT PUSH2 0x23D JUMPI PUSH2 0x100 DUP1 DUP4 SLOAD DIV MUL DUP4 MSTORE SWAP2 PUSH1 0x20 ADD SWAP2 PUSH2 0x268 JUMP JUMPDEST DUP3 ADD SWAP2 SWAP1 PUSH1 0x0 MSTORE PUSH1 0x20 PUSH1 0x0 KECCAK256 SWAP1 JUMPDEST DUP2 SLOAD DUP2 MSTORE SWAP1 PUSH1 0x1 ADD SWAP1 PUSH1 0x20 ADD DUP1 DUP4 GT PUSH2 0x24B JUMPI DUP3 SWAP1 SUB PUSH1 0x1F AND DUP3 ADD SWAP2 JUMPDEST POP POP POP POP POP DUP2 MSTORE PUSH1 0x20 ADD PUSH1 0x1 DUP3 ADD DUP1 SLOAD PUSH2 0x281 SWAP1 PUSH2 0xF1F JUMP JUMPDEST DUP1 PUSH1 0x1F ADD PUSH1 0x20 DUP1 SWAP2 DIV MUL PUSH1 0x20 ADD PUSH1 0x40 MLOAD SWAP1 DUP2 ADD PUSH1 0x40 MSTORE DUP1 SWAP3 SWAP2 SWAP1 DUP2 DUP2 MSTORE PUSH1 0x20 ADD DUP3 DUP1 SLOAD PUSH2 0x2AD SWAP1 PUSH2 0xF1F JUMP JUMPDEST DUP1 ISZERO PUSH2 0x2FA JUMPI DUP1 PUSH1 0x1F LT PUSH2 0x2CF JUMPI PUSH2 0x100 DUP1 DUP4 SLOAD DIV MUL DUP4 MSTORE SWAP2 PUSH1 0x20 ADD SWAP2 PUSH2 0x2FA JUMP JUMPDEST DUP3 ADD SWAP2 SWAP1 PUSH1 0x0 MSTORE PUSH1 0x20 PUSH1 0x0 KECCAK256 SWAP1 JUMPDEST DUP2 SLOAD DUP2 MSTORE SWAP1 PUSH1 0x1 ADD SWAP1 PUSH1 0x20 ADD DUP1 DUP4 GT PUSH2 0x2DD JUMPI DUP3 SWAP1 SUB PUSH1 0x1F AND DUP3 ADD SWAP2 JUMPDEST POP POP POP POP POP DUP2 MSTORE PUSH1 0x20 ADD PUSH1 0x2 DUP3 ADD DUP1 SLOAD PUSH2 0x313 SWAP1 PUSH2 0xF1F JUMP JUMPDEST DUP1 PUSH1 0x1F ADD PUSH1 0x20 DUP1 SWAP2 DIV MUL PUSH1 0x20 ADD PUSH1 0x40 MLOAD SWAP1 DUP2 ADD PUSH1 0x40 MSTORE DUP1 SWAP3 SWAP2 SWAP1 DUP2 DUP2 MSTORE PUSH1 0x20 ADD DUP3 DUP1 SLOAD PUSH2 0x33F SWAP1 PUSH2 0xF1F JUMP JUMPDEST DUP1 ISZERO PUSH2 0x38C JUMPI DUP1 PUSH1 0x1F LT PUSH2 0x361 JUMPI PUSH2 0x100 DUP1 DUP4 SLOAD DIV MUL DUP4 MSTORE SWAP2 PUSH1 0x20 ADD SWAP2 PUSH2 0x38C JUMP JUMPDEST DUP3 ADD SWAP2 SWAP1 PUSH1 0x0 MSTORE PUSH1 0x20 PUSH1 0x0 KECCAK256 SWAP1 JUMPDEST DUP2 SLOAD DUP2 MSTORE SWAP1 PUSH1 0x1 ADD SWAP1 PUSH1 0x20 ADD DUP1 DUP4 GT PUSH2 0x36F JUMPI DUP3 SWAP1 SUB PUSH1 0x1F AND DUP3 ADD SWAP2 JUMPDEST POP POP POP SWAP2 DUP4 MSTORE POP POP PUSH1 0x3 SWAP2 SWAP1 SWAP2 ADD SLOAD PUSH1 0x1 DUP2 SWAP1 SIGNEXTEND PUSH1 0x20 DUP4 ADD MSTORE PUSH3 0x10000 SWAP1 DIV PUSH1 0xFF AND ISZERO ISZERO PUSH1 0x40 SWAP2 DUP3 ADD MSTORE DUP2 ADD MLOAD SWAP1 SWAP2 POP PUSH2 0x3C6 SWAP1 DUP5 PUSH2 0xB1C JUMP JUMPDEST PUSH2 0x42E JUMPI PUSH1 0x40 MLOAD PUSH3 0x461BCD PUSH1 0xE5 SHL DUP2 MSTORE PUSH1 0x20 PUSH1 0x4 DUP3 ADD MSTORE PUSH1 0x2E PUSH1 0x24 DUP3 ADD MSTORE PUSH32 0x5468697320706572736F6E20646F65736E27742065786973747320696E20766F PUSH1 0x44 DUP3 ADD MSTORE PUSH14 0x7465727320646174616261736521 PUSH1 0x90 SHL PUSH1 0x64 DUP3 ADD MSTORE PUSH1 0x84 ADD JUMPDEST PUSH1 0x40 MLOAD DUP1 SWAP2 SUB SWAP1 REVERT JUMPDEST DUP1 MLOAD PUSH2 0x43A SWAP1 DUP7 PUSH2 0xB1C JUMP JUMPDEST PUSH2 0x495 JUMPI PUSH1 0x40 MLOAD PUSH3 0x461BCD PUSH1 0xE5 SHL DUP2 MSTORE PUSH1 0x20 PUSH1 0x4 DUP3 ADD MSTORE PUSH1 0x26 PUSH1 0x24 DUP3 ADD MSTORE PUSH32 0x546865206E616D65206F662074686520706572736F6E206973206E6F7420636F PUSH1 0x44 DUP3 ADD MSTORE PUSH6 0x727265637421 PUSH1 0xD0 SHL PUSH1 0x64 DUP3 ADD MSTORE PUSH1 0x84 ADD PUSH2 0x425 JUMP JUMPDEST PUSH2 0x4A3 DUP2 PUSH1 0x20 ADD MLOAD DUP6 PUSH2 0xB1C JUMP JUMPDEST PUSH2 0x501 JUMPI PUSH1 0x40 MLOAD PUSH3 0x461BCD PUSH1 0xE5 SHL DUP2 MSTORE PUSH1 0x20 PUSH1 0x4 DUP3 ADD MSTORE PUSH1 0x29 PUSH1 0x24 DUP3 ADD MSTORE PUSH32 0x546865207375726E616D65206F662074686520706572736F6E206973206E6F74 PUSH1 0x44 DUP3 ADD MSTORE PUSH9 0x20636F727265637421 PUSH1 0xB8 SHL PUSH1 0x64 DUP3 ADD MSTORE PUSH1 0x84 ADD PUSH2 0x425 JUMP JUMPDEST PUSH1 0x12 DUP2 PUSH1 0x60 ADD MLOAD PUSH1 0x1 SIGNEXTEND SLT ISZERO PUSH2 0x559 JUMPI PUSH1 0x40 MLOAD PUSH3 0x461BCD PUSH1 0xE5 SHL DUP2 MSTORE PUSH1 0x20 PUSH1 0x4 DUP3 ADD MSTORE PUSH1 0x1B PUSH1 0x24 DUP3 ADD MSTORE PUSH32 0x54686520706572736F6E206973206E6F7420616E206164756C74210000000000 PUSH1 0x44 DUP3 ADD MSTORE PUSH1 0x64 ADD PUSH2 0x425 JUMP JUMPDEST DUP1 PUSH1 0x80 ADD MLOAD PUSH2 0x5B5 JUMPI PUSH1 0x40 MLOAD PUSH3 0x461BCD PUSH1 0xE5 SHL DUP2 MSTORE PUSH1 0x20 PUSH1 0x4 DUP3 ADD MSTORE PUSH1 0x22 PUSH1 0x24 DUP3 ADD MSTORE PUSH32 0x54686520706572736F6E206973206E6F7420616C6C6F77656420746F20766F74 PUSH1 0x44 DUP3 ADD MSTORE PUSH2 0x6521 PUSH1 0xF0 SHL PUSH1 0x64 DUP3 ADD MSTORE PUSH1 0x84 ADD PUSH2 0x425 JUMP JUMPDEST POP PUSH1 0x1 SWAP5 SWAP4 POP POP POP POP JUMP JUMPDEST DUP1 MLOAD PUSH1 0x20 DUP2 DUP4 ADD DUP2 ADD DUP1 MLOAD PUSH1 0x1 DUP3 MSTORE SWAP3 DUP3 ADD SWAP2 SWAP1 SWAP4 ADD KECCAK256 SWAP2 MSTORE DUP1 SLOAD DUP2 SWAP1 PUSH2 0x5E6 SWAP1 PUSH2 0xF1F JUMP JUMPDEST DUP1 PUSH1 0x1F ADD PUSH1 0x20 DUP1 SWAP2 DIV MUL PUSH1 0x20 ADD PUSH1 0x40 MLOAD SWAP1 DUP2 ADD PUSH1 0x40 MSTORE DUP1 SWAP3 SWAP2 SWAP1 DUP2 DUP2 MSTORE PUSH1 0x20 ADD DUP3 DUP1 SLOAD PUSH2 0x612 SWAP1 PUSH2 0xF1F JUMP JUMPDEST DUP1 ISZERO PUSH2 0x65F JUMPI DUP1 PUSH1 0x1F LT PUSH2 0x634 JUMPI PUSH2 0x100 DUP1 DUP4 SLOAD DIV MUL DUP4 MSTORE SWAP2 PUSH1 0x20 ADD SWAP2 PUSH2 0x65F JUMP JUMPDEST DUP3 ADD SWAP2 SWAP1 PUSH1 0x0 MSTORE PUSH1 0x20 PUSH1 0x0 KECCAK256 SWAP1 JUMPDEST DUP2 SLOAD DUP2 MSTORE SWAP1 PUSH1 0x1 ADD SWAP1 PUSH1 0x20 ADD DUP1 DUP4 GT PUSH2 0x642 JUMPI DUP3 SWAP1 SUB PUSH1 0x1F AND DUP3 ADD SWAP2 JUMPDEST POP POP POP POP POP SWAP1 DUP1 PUSH1 0x1 ADD DUP1 SLOAD PUSH2 0x674 SWAP1 PUSH2 0xF1F JUMP JUMPDEST DUP1 PUSH1 0x1F ADD PUSH1 0x20 DUP1 SWAP2 DIV MUL PUSH1 0x20 ADD PUSH1 0x40 MLOAD SWAP1 DUP2 ADD PUSH1 0x40 MSTORE DUP1 SWAP3 SWAP2 SWAP1 DUP2 DUP2 MSTORE PUSH1 0x20 ADD DUP3 DUP1 SLOAD PUSH2 0x6A0 SWAP1 PUSH2 0xF1F JUMP JUMPDEST DUP1 ISZERO PUSH2 0x6ED JUMPI DUP1 PUSH1 0x1F LT PUSH2 0x6C2 JUMPI PUSH2 0x100 DUP1 DUP4 SLOAD DIV MUL DUP4 MSTORE SWAP2 PUSH1 0x20 ADD SWAP2 PUSH2 0x6ED JUMP JUMPDEST DUP3 ADD SWAP2 SWAP1 PUSH1 0x0 MSTORE PUSH1 0x20 PUSH1 0x0 KECCAK256 SWAP1 JUMPDEST DUP2 SLOAD DUP2 MSTORE SWAP1 PUSH1 0x1 ADD SWAP1 PUSH1 0x20 ADD DUP1 DUP4 GT PUSH2 0x6D0 JUMPI DUP3 SWAP1 SUB PUSH1 0x1F AND DUP3 ADD SWAP2 JUMPDEST POP POP POP POP POP SWAP1 DUP1 PUSH1 0x2 ADD DUP1 SLOAD PUSH2 0x702 SWAP1 PUSH2 0xF1F JUMP JUMPDEST DUP1 PUSH1 0x1F ADD PUSH1 0x20 DUP1 SWAP2 DIV MUL PUSH1 0x20 ADD PUSH1 0x40 MLOAD SWAP1 DUP2 ADD PUSH1 0x40 MSTORE DUP1 SWAP3 SWAP2 SWAP1 DUP2 DUP2 MSTORE PUSH1 0x20 ADD DUP3 DUP1 SLOAD PUSH2 0x72E SWAP1 PUSH2 0xF1F JUMP JUMPDEST DUP1 ISZERO PUSH2 0x77B JUMPI DUP1 PUSH1 0x1F LT PUSH2 0x750 JUMPI PUSH2 0x100 DUP1 DUP4 SLOAD DIV MUL DUP4 MSTORE SWAP2 PUSH1 0x20 ADD SWAP2 PUSH2 0x77B JUMP JUMPDEST DUP3 ADD SWAP2 SWAP1 PUSH1 0x0 MSTORE PUSH1 0x20 PUSH1 0x0 KECCAK256 SWAP1 JUMPDEST DUP2 SLOAD DUP2 MSTORE SWAP1 PUSH1 0x1 ADD SWAP1 PUSH1 0x20 ADD DUP1 DUP4 GT PUSH2 0x75E JUMPI DUP3 SWAP1 SUB PUSH1 0x1F AND DUP3 ADD SWAP2 JUMPDEST POP POP POP PUSH1 0x3 SWAP1 SWAP4 ADD SLOAD SWAP2 SWAP3 POP POP PUSH1 0x1 DUP2 SWAP1 SIGNEXTEND SWAP1 PUSH1 0xFF PUSH3 0x10000 SWAP1 SWAP2 DIV AND DUP6 JUMP JUMPDEST PUSH1 0x0 PUSH1 0x2 DUP3 PUSH1 0x40 MLOAD PUSH2 0x7AD SWAP2 SWAP1 PUSH2 0xF03 JUMP JUMPDEST SWAP1 DUP2 MSTORE PUSH1 0x20 ADD PUSH1 0x40 MLOAD DUP1 SWAP2 SUB SWAP1 KECCAK256 PUSH1 0x1 ADD SLOAD SWAP1 POP SWAP2 SWAP1 POP JUMP JUMPDEST PUSH1 0x0 SLOAD PUSH1 0x1 PUSH1 0x1 PUSH1 0xA0 SHL SUB AND CALLER EQ PUSH2 0x820 JUMPI PUSH1 0x40 MLOAD PUSH3 0x461BCD PUSH1 0xE5 SHL DUP2 MSTORE PUSH1 0x20 PUSH1 0x4 DUP3 ADD MSTORE PUSH1 0x17 PUSH1 0x24 DUP3 ADD MSTORE PUSH32 0x4E6F742074686520636F6E7472616374206F776E657221000000000000000000 PUSH1 0x44 DUP3 ADD MSTORE PUSH1 0x64 ADD PUSH2 0x425 JUMP JUMPDEST PUSH1 0x0 DUP1 SLOAD PUSH1 0xFF PUSH1 0xA0 SHL NOT AND SWAP1 SSTORE PUSH1 0x40 MLOAD PUSH10 0x4B616E64796461742031 PUSH1 0xB0 SHL DUP2 MSTORE PUSH1 0x2 SWAP1 PUSH1 0xA ADD SWAP1 DUP2 MSTORE PUSH1 0x20 ADD PUSH1 0x40 MLOAD DUP1 SWAP2 SUB SWAP1 KECCAK256 PUSH1 0x1 ADD SLOAD PUSH1 0x3 PUSH1 0x0 DUP2 SLOAD DUP2 LT PUSH2 0x86C JUMPI PUSH2 0x86C PUSH2 0xF59 JUMP JUMPDEST SWAP1 PUSH1 0x0 MSTORE PUSH1 0x20 PUSH1 0x0 KECCAK256 SWAP1 PUSH1 0x2 MUL ADD PUSH1 0x1 ADD DUP2 SWAP1 SSTORE POP PUSH1 0x2 PUSH1 0x40 MLOAD PUSH2 0x8A0 SWAP1 PUSH10 0x25B0B7323CB230BA1019 PUSH1 0xB1 SHL DUP2 MSTORE PUSH1 0xA ADD SWAP1 JUMP JUMPDEST SWAP1 DUP2 MSTORE PUSH1 0x20 ADD PUSH1 0x40 MLOAD DUP1 SWAP2 SUB SWAP1 KECCAK256 PUSH1 0x1 ADD SLOAD PUSH1 0x3 PUSH1 0x1 DUP2 SLOAD DUP2 LT PUSH2 0x8C6 JUMPI PUSH2 0x8C6 PUSH2 0xF59 JUMP JUMPDEST SWAP1 PUSH1 0x0 MSTORE PUSH1 0x20 PUSH1 0x0 KECCAK256 SWAP1 PUSH1 0x2 MUL ADD PUSH1 0x1 ADD DUP2 SWAP1 SSTORE POP PUSH1 0x2 PUSH1 0x40 MLOAD PUSH2 0x8FA SWAP1 PUSH10 0x4B616E64796461742033 PUSH1 0xB0 SHL DUP2 MSTORE PUSH1 0xA ADD SWAP1 JUMP JUMPDEST SWAP1 DUP2 MSTORE PUSH1 0x20 ADD PUSH1 0x40 MLOAD DUP1 SWAP2 SUB SWAP1 KECCAK256 PUSH1 0x1 ADD SLOAD PUSH1 0x3 PUSH1 0x2 DUP2 SLOAD DUP2 LT PUSH2 0x920 JUMPI PUSH2 0x920 PUSH2 0xF59 JUMP JUMPDEST SWAP1 PUSH1 0x0 MSTORE PUSH1 0x20 PUSH1 0x0 KECCAK256 SWAP1 PUSH1 0x2 MUL ADD PUSH1 0x1 ADD DUP2 SWAP1 SSTORE POP JUMP JUMPDEST PUSH1 0x3 DUP2 DUP2 SLOAD DUP2 LT PUSH2 0x947 JUMPI PUSH1 0x0 DUP1 REVERT JUMPDEST SWAP1 PUSH1 0x0 MSTORE PUSH1 0x20 PUSH1 0x0 KECCAK256 SWAP1 PUSH1 0x2 MUL ADD PUSH1 0x0 SWAP2 POP SWAP1 POP DUP1 PUSH1 0x0 ADD DUP1 SLOAD PUSH2 0x96A SWAP1 PUSH2 0xF1F JUMP JUMPDEST DUP1 PUSH1 0x1F ADD PUSH1 0x20 DUP1 SWAP2 DIV MUL PUSH1 0x20 ADD PUSH1 0x40 MLOAD SWAP1 DUP2 ADD PUSH1 0x40 MSTORE DUP1 SWAP3 SWAP2 SWAP1 DUP2 DUP2 MSTORE PUSH1 0x20 ADD DUP3 DUP1 SLOAD PUSH2 0x996 SWAP1 PUSH2 0xF1F JUMP JUMPDEST DUP1 ISZERO PUSH2 0x9E3 JUMPI DUP1 PUSH1 0x1F LT PUSH2 0x9B8 JUMPI PUSH2 0x100 DUP1 DUP4 SLOAD DIV MUL DUP4 MSTORE SWAP2 PUSH1 0x20 ADD SWAP2 PUSH2 0x9E3 JUMP JUMPDEST DUP3 ADD SWAP2 SWAP1 PUSH1 0x0 MSTORE PUSH1 0x20 PUSH1 0x0 KECCAK256 SWAP1 JUMPDEST DUP2 SLOAD DUP2 MSTORE SWAP1 PUSH1 0x1 ADD SWAP1 PUSH1 0x20 ADD DUP1 DUP4 GT PUSH2 0x9C6 JUMPI DUP3 SWAP1 SUB PUSH1 0x1F AND DUP3 ADD SWAP2 JUMPDEST POP POP POP POP POP SWAP1 DUP1 PUSH1 0x1 ADD SLOAD SWAP1 POP DUP3 JUMP JUMPDEST PUSH1 0x0 SLOAD PUSH1 0x1 PUSH1 0xA0 SHL SWAP1 DIV PUSH1 0xFF AND PUSH2 0xA42 JUMPI PUSH1 0x40 MLOAD PUSH3 0x461BCD PUSH1 0xE5 SHL DUP2 MSTORE PUSH1 0x20 PUSH1 0x4 DUP3 ADD MSTORE PUSH1 0x13 PUSH1 0x24 DUP3 ADD MSTORE PUSH19 0x456C656374696F6E20697320636C6F73656421 PUSH1 0x68 SHL PUSH1 0x44 DUP3 ADD MSTORE PUSH1 0x64 ADD PUSH2 0x425 JUMP JUMPDEST PUSH2 0xA4D DUP5 DUP5 DUP5 PUSH2 0x1B3 JUMP JUMPDEST PUSH2 0xAA5 JUMPI PUSH1 0x40 MLOAD PUSH3 0x461BCD PUSH1 0xE5 SHL DUP2 MSTORE PUSH1 0x20 PUSH1 0x4 DUP3 ADD MSTORE PUSH1 0x23 PUSH1 0x24 DUP3 ADD MSTORE PUSH32 0x566F746572206469646E27742066756C66696C6C7320726571756972656D656E PUSH1 0x44 DUP3 ADD MSTORE PUSH3 0x747321 PUSH1 0xE8 SHL PUSH1 0x64 DUP3 ADD MSTORE PUSH1 0x84 ADD PUSH2 0x425 JUMP JUMPDEST PUSH1 0x0 PUSH1 0x1 DUP4 PUSH1 0x40 MLOAD PUSH2 0xAB7 SWAP2 SWAP1 PUSH2 0xF03 JUMP JUMPDEST SWAP1 DUP2 MSTORE PUSH1 0x20 ADD PUSH1 0x40 MLOAD DUP1 SWAP2 SUB SWAP1 KECCAK256 PUSH1 0x3 ADD PUSH1 0x2 PUSH2 0x100 EXP DUP2 SLOAD DUP2 PUSH1 0xFF MUL NOT AND SWAP1 DUP4 ISZERO ISZERO MUL OR SWAP1 SSTORE POP PUSH1 0x1 PUSH1 0x2 DUP3 PUSH1 0x40 MLOAD PUSH2 0xAF1 SWAP2 SWAP1 PUSH2 0xF03 JUMP JUMPDEST SWAP1 DUP2 MSTORE PUSH1 0x20 ADD PUSH1 0x40 MLOAD DUP1 SWAP2 SUB SWAP1 KECCAK256 PUSH1 0x1 ADD PUSH1 0x0 DUP3 DUP3 SLOAD PUSH2 0xB11 SWAP2 SWAP1 PUSH2 0xF6F JUMP JUMPDEST SWAP1 SWAP2 SSTORE POP POP POP POP POP POP JUMP JUMPDEST PUSH1 0x0 DUP2 PUSH1 0x40 MLOAD PUSH1 0x20 ADD PUSH2 0xB2F SWAP2 SWAP1 PUSH2 0xF03 JUMP JUMPDEST PUSH1 0x40 MLOAD PUSH1 0x20 DUP2 DUP4 SUB SUB DUP2 MSTORE SWAP1 PUSH1 0x40 MSTORE DUP1 MLOAD SWAP1 PUSH1 0x20 ADD KECCAK256 DUP4 PUSH1 0x40 MLOAD PUSH1 0x20 ADD PUSH2 0xB56 SWAP2 SWAP1 PUSH2 0xF03 JUMP JUMPDEST PUSH1 0x40 MLOAD PUSH1 0x20 DUP2 DUP4 SUB SUB DUP2 MSTORE SWAP1 PUSH1 0x40 MSTORE DUP1 MLOAD SWAP1 PUSH1 0x20 ADD KECCAK256 SUB PUSH2 0xB79 JUMPI POP PUSH1 0x1 PUSH2 0xB7D JUMP JUMPDEST POP PUSH1 0x0 JUMPDEST SWAP3 SWAP2 POP POP JUMP JUMPDEST DUP1 MLOAD PUSH1 0x20 DUP2 DUP4 ADD DUP2 ADD DUP1 MLOAD PUSH1 0x2 DUP3 MSTORE SWAP3 DUP3 ADD SWAP2 SWAP1 SWAP4 ADD KECCAK256 SWAP2 MSTORE DUP1 SLOAD DUP2 SWAP1 PUSH2 0x96A SWAP1 PUSH2 0xF1F JUMP JUMPDEST PUSH4 0x4E487B71 PUSH1 0xE0 SHL PUSH1 0x0 MSTORE PUSH1 0x41 PUSH1 0x4 MSTORE PUSH1 0x24 PUSH1 0x0 REVERT JUMPDEST PUSH1 0x0 DUP3 PUSH1 0x1F DUP4 ADD SLT PUSH2 0xBD0 JUMPI PUSH1 0x0 DUP1 REVERT JUMPDEST DUP2 CALLDATALOAD PUSH8 0xFFFFFFFFFFFFFFFF DUP1 DUP3 GT ISZERO PUSH2 0xBEB JUMPI PUSH2 0xBEB PUSH2 0xBA9 JUMP JUMPDEST PUSH1 0x40 MLOAD PUSH1 0x1F DUP4 ADD PUSH1 0x1F NOT SWAP1 DUP2 AND PUSH1 0x3F ADD AND DUP2 ADD SWAP1 DUP3 DUP3 GT DUP2 DUP4 LT OR ISZERO PUSH2 0xC13 JUMPI PUSH2 0xC13 PUSH2 0xBA9 JUMP JUMPDEST DUP2 PUSH1 0x40 MSTORE DUP4 DUP2 MSTORE DUP7 PUSH1 0x20 DUP6 DUP9 ADD ADD GT ISZERO PUSH2 0xC2C JUMPI PUSH1 0x0 DUP1 REVERT JUMPDEST DUP4 PUSH1 0x20 DUP8 ADD PUSH1 0x20 DUP4 ADD CALLDATACOPY PUSH1 0x0 PUSH1 0x20 DUP6 DUP4 ADD ADD MSTORE DUP1 SWAP5 POP POP POP POP POP SWAP3 SWAP2 POP POP JUMP JUMPDEST PUSH1 0x0 DUP1 PUSH1 0x0 PUSH1 0x60 DUP5 DUP7 SUB SLT ISZERO PUSH2 0xC61 JUMPI PUSH1 0x0 DUP1 REVERT JUMPDEST DUP4 CALLDATALOAD PUSH8 0xFFFFFFFFFFFFFFFF DUP1 DUP3 GT ISZERO PUSH2 0xC79 JUMPI PUSH1 0x0 DUP1 REVERT JUMPDEST PUSH2 0xC85 DUP8 DUP4 DUP9 ADD PUSH2 0xBBF JUMP JUMPDEST SWAP5 POP PUSH1 0x20 DUP7 ADD CALLDATALOAD SWAP2 POP DUP1 DUP3 GT ISZERO PUSH2 0xC9B JUMPI PUSH1 0x0 DUP1 REVERT JUMPDEST PUSH2 0xCA7 DUP8 DUP4 DUP9 ADD PUSH2 0xBBF JUMP JUMPDEST SWAP4 POP PUSH1 0x40 DUP7 ADD CALLDATALOAD SWAP2 POP DUP1 DUP3 GT ISZERO PUSH2 0xCBD JUMPI PUSH1 0x0 DUP1 REVERT JUMPDEST POP PUSH2 0xCCA DUP7 DUP3 DUP8 ADD PUSH2 0xBBF JUMP JUMPDEST SWAP2 POP POP SWAP3 POP SWAP3 POP SWAP3 JUMP JUMPDEST PUSH1 0x0 PUSH1 0x20 DUP3 DUP5 SUB SLT ISZERO PUSH2 0xCE6 JUMPI PUSH1 0x0 DUP1 REVERT JUMPDEST DUP2 CALLDATALOAD PUSH8 0xFFFFFFFFFFFFFFFF DUP2 GT ISZERO PUSH2 0xCFD JUMPI PUSH1 0x0 DUP1 REVERT JUMPDEST PUSH2 0xD09 DUP5 DUP3 DUP6 ADD PUSH2 0xBBF JUMP JUMPDEST SWAP5 SWAP4 POP POP POP POP JUMP JUMPDEST PUSH1 0x0 JUMPDEST DUP4 DUP2 LT ISZERO PUSH2 0xD2C JUMPI DUP2 DUP2 ADD MLOAD DUP4 DUP3 ADD MSTORE PUSH1 0x20 ADD PUSH2 0xD14 JUMP JUMPDEST POP POP PUSH1 0x0 SWAP2 ADD MSTORE JUMP JUMPDEST PUSH1 0x0 DUP2 MLOAD DUP1 DUP5 MSTORE PUSH2 0xD4D DUP2 PUSH1 0x20 DUP7 ADD PUSH1 0x20 DUP7 ADD PUSH2 0xD11 JUMP JUMPDEST PUSH1 0x1F ADD PUSH1 0x1F NOT AND SWAP3 SWAP1 SWAP3 ADD PUSH1 0x20 ADD SWAP3 SWAP2 POP POP JUMP JUMPDEST PUSH1 0xA0 DUP2 MSTORE PUSH1 0x0 PUSH2 0xD74 PUSH1 0xA0 DUP4 ADD DUP9 PUSH2 0xD35 JUMP JUMPDEST DUP3 DUP2 SUB PUSH1 0x20 DUP5 ADD MSTORE PUSH2 0xD86 DUP2 DUP9 PUSH2 0xD35 JUMP JUMPDEST SWAP1 POP DUP3 DUP2 SUB PUSH1 0x40 DUP5 ADD MSTORE PUSH2 0xD9A DUP2 DUP8 PUSH2 0xD35 JUMP JUMPDEST PUSH1 0x1 SWAP6 SWAP1 SWAP6 SIGNEXTEND PUSH1 0x60 DUP5 ADD MSTORE POP POP SWAP1 ISZERO ISZERO PUSH1 0x80 SWAP1 SWAP2 ADD MSTORE SWAP4 SWAP3 POP POP POP JUMP JUMPDEST PUSH1 0x0 PUSH1 0x20 DUP3 DUP5 SUB SLT ISZERO PUSH2 0xDC9 JUMPI PUSH1 0x0 DUP1 REVERT JUMPDEST POP CALLDATALOAD SWAP2 SWAP1 POP JUMP JUMPDEST PUSH1 0x40 DUP2 MSTORE PUSH1 0x0 PUSH2 0xDE3 PUSH1 0x40 DUP4 ADD DUP6 PUSH2 0xD35 JUMP JUMPDEST SWAP1 POP DUP3 PUSH1 0x20 DUP4 ADD MSTORE SWAP4 SWAP3 POP POP POP JUMP JUMPDEST PUSH1 0x0 DUP1 PUSH1 0x0 DUP1 PUSH1 0x80 DUP6 DUP8 SUB SLT ISZERO PUSH2 0xE08 JUMPI PUSH1 0x0 DUP1 REVERT JUMPDEST DUP5 CALLDATALOAD PUSH8 0xFFFFFFFFFFFFFFFF DUP1 DUP3 GT ISZERO PUSH2 0xE20 JUMPI PUSH1 0x0 DUP1 REVERT JUMPDEST PUSH2 0xE2C DUP9 DUP4 DUP10 ADD PUSH2 0xBBF JUMP JUMPDEST SWAP6 POP PUSH1 0x20 DUP8 ADD CALLDATALOAD SWAP2 POP DUP1 DUP3 GT ISZERO PUSH2 0xE42 JUMPI PUSH1 0x0 DUP1 REVERT JUMPDEST PUSH2 0xE4E DUP9 DUP4 DUP10 ADD PUSH2 0xBBF JUMP JUMPDEST SWAP5 POP PUSH1 0x40 DUP8 ADD CALLDATALOAD SWAP2 POP DUP1 DUP3 GT ISZERO PUSH2 0xE64 JUMPI PUSH1 0x0 DUP1 REVERT JUMPDEST PUSH2 0xE70 DUP9 DUP4 DUP10 ADD PUSH2 0xBBF JUMP JUMPDEST SWAP4 POP PUSH1 0x60 DUP8 ADD CALLDATALOAD SWAP2 POP DUP1 DUP3 GT ISZERO PUSH2 0xE86 JUMPI PUSH1 0x0 DUP1 REVERT JUMPDEST POP PUSH2 0xE93 DUP8 DUP3 DUP9 ADD PUSH2 0xBBF JUMP JUMPDEST SWAP2 POP POP SWAP3 SWAP6 SWAP2 SWAP5 POP SWAP3 POP JUMP JUMPDEST PUSH1 0x0 DUP1 PUSH1 0x40 DUP4 DUP6 SUB SLT ISZERO PUSH2 0xEB2 JUMPI PUSH1 0x0 DUP1 REVERT JUMPDEST DUP3 CALLDATALOAD PUSH8 0xFFFFFFFFFFFFFFFF DUP1 DUP3 GT ISZERO PUSH2 0xECA JUMPI PUSH1 0x0 DUP1 REVERT JUMPDEST PUSH2 0xED6 DUP7 DUP4 DUP8 ADD PUSH2 0xBBF JUMP JUMPDEST SWAP4 POP PUSH1 0x20 DUP6 ADD CALLDATALOAD SWAP2 POP DUP1 DUP3 GT ISZERO PUSH2 0xEEC JUMPI PUSH1 0x0 DUP1 REVERT JUMPDEST POP PUSH2 0xEF9 DUP6 DUP3 DUP7 ADD PUSH2 0xBBF JUMP JUMPDEST SWAP2 POP POP SWAP3 POP SWAP3 SWAP1 POP JUMP JUMPDEST PUSH1 0x0 DUP3 MLOAD PUSH2 0xF15 DUP2 DUP5 PUSH1 0x20 DUP8 ADD PUSH2 0xD11 JUMP JUMPDEST SWAP2 SWAP1 SWAP2 ADD SWAP3 SWAP2 POP POP JUMP JUMPDEST PUSH1 0x1 DUP2 DUP2 SHR SWAP1 DUP3 AND DUP1 PUSH2 0xF33 JUMPI PUSH1 0x7F DUP3 AND SWAP2 POP JUMPDEST PUSH1 0x20 DUP3 LT DUP2 SUB PUSH2 0xF53 JUMPI PUSH4 0x4E487B71 PUSH1 0xE0 SHL PUSH1 0x0 MSTORE PUSH1 0x22 PUSH1 0x4 MSTORE PUSH1 0x24 PUSH1 0x0 REVERT JUMPDEST POP SWAP2 SWAP1 POP JUMP JUMPDEST PUSH4 0x4E487B71 PUSH1 0xE0 SHL PUSH1 0x0 MSTORE PUSH1 0x32 PUSH1 0x4 MSTORE PUSH1 0x24 PUSH1 0x0 REVERT JUMPDEST DUP1 DUP3 ADD DUP1 DUP3 GT ISZERO PUSH2 0xB7D JUMPI PUSH4 0x4E487B71 PUSH1 0xE0 SHL PUSH1 0x0 MSTORE PUSH1 0x11 PUSH1 0x4 MSTORE PUSH1 0x24 PUSH1 0x0 REVERT INVALID LOG2 PUSH5 0x6970667358 0x22 SLT KECCAK256 0xF9 0xF6 CALLCODE PUSH29 0x905B6EA6B2700D528DB931D1EF70211D33D74E3DF05C7BC0868676DE64 PUSH20 0x6F6C634300081100330000000000000000000000 ",
  "sha1": "b73d96b44eee3ba7bf6bfbd5bb44df4705178ba1",
  "source": "// SPDX-License-Identifier: MIT\n\npragma solidity ^0.8.16;\n\ncontract VotingSystem {\n    struct Voter {\n        string name;\n        string surname;\n        string PESEL; // Identity number\n        int16 age; // to check if in proper age to vote\n        bool allowedToVote; // voted or not ? Or does his rights to vote exist?\n    }\n\n    struct Candidate {\n        string name;\n        uint256 receivedVotes; // which place candidate took after finished voting\n    }\n\n    address public electionChief;\n    bool public electionOpen;\n\n    mapping(string => Voter) public voters; // voter's PESEL => Voter ---- consider using a list of voters indexed by int(PESEL)\n    mapping(string => Candidate) public candidates; // candidate's name => Candidate\n\n    Candidate[] public listOfCandidates;\n\n    constructor() {\n        electionChief = msg.sender;\n        electionOpen = true;\n\n        initializeVoters();\n        initializeCandidates();\n    }\n\n    function vote(\n        string memory voterName,\n        string memory voterSurname,\n        string memory voterPESEL,\n        string memory candidateName\n    ) public {\n        require(electionOpen, \"Election is closed!\");\n        require(\n            verifyVoter(voterName, voterSurname, voterPESEL),\n            \"Voter didn't fulfills requirements!\"\n        );\n        voters[voterPESEL].allowedToVote = false;\n        candidates[candidateName].receivedVotes += 1;\n    }\n\n    function verifyVoter(\n        string memory voterName,\n        string memory voterSurname,\n        string memory voterPESEL\n    ) public view returns (bool voterEligible) {\n        Voter memory currentVoter = voters[voterPESEL];\n        require(\n            isTheSameString(currentVoter.PESEL, voterPESEL),\n            \"This person doesn't exists in voters database!\"\n        );\n        require(\n            isTheSameString(currentVoter.name, voterName),\n            \"The name of the person is not correct!\"\n        );\n        require(\n            isTheSameString(currentVoter.surname, voterSurname),\n            \"The surname of the person is not correct!\"\n        );\n        require(currentVoter.age >= 18, \"The person is not an adult!\");\n        require(\n            currentVoter.allowedToVote,\n            \"The person is not allowed to vote!\"\n        );\n        return true; // Check if this won't work if required aren't fulfilled!!!\n    }\n\n    modifier onlyOwner() {\n        require(msg.sender == electionChief, \"Not the contract owner!\");\n        _;\n    }\n\n    function finishElection() public onlyOwner {\n        electionOpen = false;\n        listOfCandidates[0].receivedVotes = candidates[\"Kandydat 1\"]\n            .receivedVotes;\n        listOfCandidates[1].receivedVotes = candidates[\"Kandydat 2\"]\n            .receivedVotes;\n        listOfCandidates[2].receivedVotes = candidates[\"Kandydat 3\"]\n            .receivedVotes;\n    }\n\n    function votesValue(string memory candidateName)\n        public\n        view\n        returns (uint256)\n    {\n        return candidates[candidateName].receivedVotes;\n    }\n\n    function initializeCandidates() internal {\n        listOfCandidates.push(\n            Candidate({name: \"Kandydat 1\", receivedVotes: 0})\n        );\n        listOfCandidates.push(\n            Candidate({name: \"Kandydat 2\", receivedVotes: 0})\n        );\n        listOfCandidates.push(\n            Candidate({name: \"Kandydat 3\", receivedVotes: 0})\n        );\n        candidates[\"Kandydat 1\"] = listOfCandidates[0];\n        candidates[\"Kandydat 2\"] = listOfCandidates[1];\n        candidates[\"Kandydat 3\"] = listOfCandidates[2];\n    }\n\n    function initializeVoters() internal {\n        voters[\"00223390432\"] = Voter({\n            name: \"Jan\",\n            surname: \"Kowalski\",\n            PESEL: \"00223390432\",\n            age: 22,\n            allowedToVote: true\n        });\n        voters[\"90022074332\"] = Voter({\n            name: \"Halina\",\n            surname: \"Nowak\",\n            PESEL: \"90022074332\",\n            age: 32,\n            allowedToVote: true\n        });\n        voters[\"93031065465\"] = Voter({\n            name: \"Ludwik\",\n            surname: \"Montgommery\",\n            PESEL: \"93031065465\",\n            age: 29,\n            allowedToVote: true\n        });\n        voters[\"80030485668\"] = Voter({\n            name: \"Katarzyna\",\n            surname: \"Mak\",\n            PESEL: \"80030485668\",\n            age: 42,\n            allowedToVote: true\n        });\n        voters[\"91080196662\"] = Voter({\n            name: \"Joanna\",\n            surname: \"Zych\",\n            PESEL: \"91080196662\",\n            age: 31,\n            allowedToVote: true\n        });\n        voters[\"01302417347\"] = Voter({\n            name: \"Monika\",\n            surname: \"Grabowska\",\n            PESEL: \"01302417347\",\n            age: 21,\n            allowedToVote: true\n        });\n        voters[\"00221724457\"] = Voter({\n            name: \"Dariusz\",\n            surname: \"Duda\",\n            PESEL: \"00221724457\",\n            age: 22,\n            allowedToVote: true\n        });\n        voters[\"11301926436\"] = Voter({\n            name: \"Karol\",\n            surname: \"Nowak\",\n            PESEL: \"11301926436\",\n            age: 11,\n            allowedToVote: false\n        });\n    }\n\n    function isTheSameString(string memory stringOne, string memory stringTwo)\n        public\n        pure\n        returns (bool)\n    {\n        // Compare string keccak256 hashes to check equality\n        if (\n            keccak256(abi.encodePacked(stringOne)) ==\n            keccak256(abi.encodePacked(stringTwo))\n        ) {\n            return true;\n        }\n        return false;\n    }\n\n    // Found Function - maybe will be usefull in aim to index listOfCandidates by PESEL\n    /*\n    function st2num(string memory numString) public pure returns(uint) {\n        uint  val=0;\n        bytes   memory stringBytes = bytes(numString);\n        for (uint  i =  0; i<stringBytes.length; i++) {\n            uint exp = stringBytes.length - i;\n            bytes1 ival = stringBytes[i];\n            uint8 uval = uint8(ival);\n           uint jval = uval - uint(0x30);\n   \n           val +=  (uint(jval) * (10**(exp-1))); \n        }\n      return val;\n    }\n    */\n}\n",
  "sourcePath": "contracts/VotingSystem.sol",
  "type": "contract"
}